:020000040001F9
:10B00000486F002089B10100A3B10100A5B1010082
:10B010000000000000000000000000000000000030
:10B02000000000000000000000000000A7B10100C7
:10B030000000000000000000A9B10100ABB1010058
:10B04000ADB10100ADB10100B1BC0100D5BB010043
:10B05000ADB10100000000002DB60100ADB101004E
:10B06000ADB10100ADB10100ADB10100ADB1010064
:10B07000ADB10100ADB10100ADB10100ADB1010054
:10B08000ADB10100B5BB0100ADB10100ADB1010032
:10B09000E9BB0100ADB10100F1BB0100ADB10100A0
:10B0A000ADB10100ADB101000000000000000000E2
:10B0B0000000000000000000000000000000000090
:10B0C0000348854600F074FA00480047FDEE010091
:10B0D000486F0020401E00BF00BF00BF00BF00BF80
:10B0E00000BF00BF00BF00BF00BF00BF00BFF1D165
:10B0F00070470000401E00BF00BF00BF00BF00BF80
:10B1000000BF00BF00BF00BF00BF00BF00BFF1D144
:10B1100070470000401E00BF00BF00BF00BF00BF5F
:10B1200000BF00BF00BF00BF00BF00BF00BFF1D124
:10B1300070470000401E00BF00BF00BF00BF00BF3F
:10B1400000BF00BF00BF00BF00BF00BF00BFF1D104
:10B1500070470000056885F308884068FF2464B2E2
:10B16000EFF30585002D01D1A6460047254606468A
:10B1700021273FBAF0B40024002500260027F0B4B0
:10B18000F92040B2004700000321094802680A4341
:10B190000260084802680A4302600748804707487F
:10B1A0000047FEE7FEE7FEE7FEE7FEE7FEE70000FA
:10B1B000240500405405004011BC0100C1B001004D
:10B1C00030B50B46014600202022012409E00D463F
:10B1D000D5409D4205D31D469540491B25469540C7
:10B1E00040191546521E002DF1DC30BD70B500240B
:10B1F0002546002801DA01244042002901DA012510
:10B200004942FFF7DDFFAC4200D04042002C00D0A5
:10B21000494270BD10B5431A934209D28318881869
:10B2200003E0401E01785B1E1970521EF9D210BD5A
:10B2300003460B439B0703D009E008C9121F08C04F
:10B24000042AFAD203E00B780370401C491C521EFA
:10B25000F9D210BDD2B201E00270401C491EFBD2EF
:10B2600070470022F6E710B513460A460446194611
:10B27000FFF7F0FF204610BD421C0178401C00295A
:10B28000FBD1801A704730B504460020034600E029
:10B290005B1C934203D2E05CCD5C401BF8D030BD18
:10B2A000F0B507460846584087B0C00F04904800E4
:10B2B0000E46590040084908BC1A884105D2384654
:10B2C00031461E4617460B460246580040081043BA
:10B2D0004CD0300D039040055900400D490D0590AC
:10B2E000401A0290402872DA18030121000B090568
:10B2F0000843019004980092002805D00199524219
:10B300000020884100920190029840210A1A019978
:10B31000009800F0B9F805460C466B4607CB00F0E4
:10B32000D4F8C0197141039A0E0D0023D717564067
:10B330001A467A40164344D0049A002A2DD0029A25
:10B34000012A039A15DC1205C01A9141012636051F
:10B35000001C7141D20F059ED20700930192029604
:10B360002A46234600F0D1F807B0F0BD38463146F2
:10B37000FAE71605224A0F46B218C01AB741012152
:10B380000905001C4F4100187F41114618187941EA
:10B39000E20F10436D19644113E0E2076D08154395
:10B3A0006408C2071443039A01261205C01A91418A
:10B3B0003605001C7141CE07400830434908C018CB
:10B3C00051412A46234600F093F8CDE7FFE7049861
:10B3D00001224000C117121A00238B410498314604
:10B3E000C417381AA141EEE730B40124E4076340E2
:10B3F00030BC55E730B40124E407614030BC4FE76E
:10B400000000E0FF70B54B005B0803430BD04B001E
:10B410005C0D002633466542B341D417AD1AA341F3
:10B4200002DB0020014670BD12053018514170BD8D
:10B430000EB505490291002100910A460B46019183
:10B4400000F063F803B000BD330400004A000903B4
:10B450000123090B1B051943094B10B5520D9A42E4
:10B4600001DA002010BD064B34339A4203DC9A1AED
:10B4700000F01AF810BD03495118884010BD0000B3
:10B48000FF030000CDFBFFFF10B5202A04DB0146BF
:10B49000203A9140002010BD914020239C1A034681
:10B4A000E3401943904010BD10B5202A04DB084644
:10B4B000203AD040002110BD0B46D340D04020247C
:10B4C000A21A91400843194610BD10B5202A06DB88
:10B4D000CB170846203A1041C1170B4306E00B4634
:10B4E0001341D0402024A21A91400843194610BDB0
:10B4F00010B5002B08DA0024401C614192185B4112
:10B500001A4301D14008400010BDF0B51FB482B00D
:10B5100005460C0003D0084600F0CEFB02E000F028
:10B52000CBFB20300246009021462846FFF7ACFFB7
:10B53000049B059A04460F4618431143084314D050
:10B54000184610431BD0009840210A1A1846059946
:10B55000FFF7AAFF05460E46009A05990498FFF7E3
:10B5600093FF084305D0012004E02046394607B088
:10B57000F0BD0020C11705430E432C43374300990B
:10B580000E986305401A7905E40A00220C43FD0A6F
:10B590000A3002D500200146E9E70105101969418A
:10B5A0000C9C0D9D00196941FFF7A2FFDFE7000029
:10B5B000064C0125064E05E0E36807CC2B430C3C06
:10B5C00098471034B442F7D3FFF77EFDC80C020051
:10B5D000E80C020070B58C180578401C6B075B0FF7
:10B5E00001D10378401C2A1106D10278401C03E0E7
:10B5F00006780E70401C491C5B1EF9D12B0705D440
:10B600000023521E0DD40B70491CFAE70378401C2E
:10B61000CB1A921C03E01D780D70491C5B1C521E56
:10B62000F9D5A142D8D3002070BD0000F0B50025A7
:10B63000FF248BB0013401262F460195204603F0EC
:10B640006BFF002808D047484068304204D0464885
:10B650000021201835430160241D76007F1CA4B210
:10B66000042FEBD3FF207D3003F056FF002807D0D6
:10B670003E4800210160400705433D4800690190B4
:10B680003C4C280712D0012700262F420AD03A4806
:10B69000B200111808690969C004C00E8903A258D4
:10B6A000890F90477F00761C042EEED3002D57DAC9
:10B6B00000200590401E4DE0A11940310878850614
:10B6C000AD0E42B2521C39D00121A940089A009116
:10B6D000114233D080090390284601F015FC800008
:10B6E00020580490002802D10398032826D10398FB
:10B6F0000099032802D10598084305901F4AA80025
:10B7000080180068019A8003800F114202D002283D
:10B7100002D013E0032811D10399032907D102288D
:10B720001CD00221284603F0D7FE7F1CFFB20498EC
:10B73000002803D0049A284603999047761C042ECB
:10B74000BAD3002F0CD00A4800690199884207D06B
:10B750000190059800273E460890ADE70321E1E7F8
:10B760000BB0F0BD00630040006000407C61004011
:10B7700000050050B0630020006500400007005045
:10B7800010B58AB040A00068019040A00068029007
:10B790003FA0006803903FA0006804903EA00068AE
:10B7A00005903EA0006806903DA0006807903DA06F
:10B7B000006808903CA0006800240990022301AAB8
:10B7C00018210094394803F011FE002801D000F040
:10B7D00029FC022302AA18213448009403F006FE33
:10B7E000002801D000F01EFC022303AA18212F48D4
:10B7F000009403F0FBFD002801D000F013FC0223AD
:10B8000004AA18212948009403F0F0FD002801D073
:10B8100000F008FC022305AA18212448009403F034
:10B82000E5FD002801D000F0FDFB022306AA182147
:10B830001E48009403F0DAFD002801D000F0F2FB6E
:10B84000022307AA18211948009403F0CFFD00280D
:10B8500001D000F0E7FB022308AA18211348009446
:10B8600003F0C4FD002801D000F0DCFB022309AA8C
:10B8700018210E48009403F0B9FD002801D000F013
:10B88000D1FB0AB010BD00001E9000001F00000098
:10B89000202F0000210000002200000023240000CF
:10B8A00024400000250000002E400000A4200020BD
:10B8B00030B587B0282168460171292101722A21FB
:10B8C00001732B2101742C2101752D210176002497
:10B8D000012301AA18214148009403F087FD0028A4
:10B8E00001D000F09FFB3E4D0123AA1D18213B48CB
:10B8F00003F06AFD002801D000F094FB012302AAA6
:10B9000018213648009403F071FD002801D000F0A2
:10B9100089FB0123EA1D1821304803F055FD00285A
:10B9200001D000F07FFB012303AA18212B480094CB
:10B9300003F05CFD002801D000F074FB284A0123CD
:10B9400008321821254803F03FFD002801D000F0FF
:10B9500069FB012304AA18212048009403F046FD46
:10B96000002801D000F05EFB1D4A01230932182196
:10B970001A4803F029FD002801D000F053FB0123F1
:10B9800005AA18211548009403F030FD002801D0C5
:10B9900000F048FB124A01230A3218210F4803F035
:10B9A00013FD002801D000F03DFB012306AA182159
:10B9B0000A48009403F01AFD002801D000F032FB81
:10B9C000074A01230B321821044803F0FDFC00282C
:10B9D00001D000F027FB07B030BD0000A4200020FC
:10B9E000A860002030B58BB056A00068019056A02A
:10B9F0000068029055A00068039055A0006804906C
:10BA000054A00068059054A00068069053A00068F8
:10BA1000079053A00068089052A00068099052A0B7
:10BA20000068002500950A90022302AA57214F487A
:10BA300003F0DCFC04460320FFF74CFB200001D0A0
:10BA400000F0F0FA022301AA57214848009503F0BC
:10BA5000CDFC0320FFF73EFB200001D000F0E2FA0E
:10BA6000022303AA57214148009503F0BFFC03209D
:10BA7000FFF730FB200001D000F0D4FA022304AA23
:10BA800057213A48009503F0B1FC0320FFF722FB51
:10BA9000200001D000F0C6FA022305AA572133483E
:10BAA000009503F0A3FC0320FFF714FB200001D056
:10BAB00000F0B8FA022306AA57212C48009503F09B
:10BAC00095FC0320FFF706FB200001D000F0AAFA46
:10BAD000022307AA57212548009503F087FC03207D
:10BAE000FFF7F8FA200001D000F09CFA022308AA20
:10BAF00057211E48009503F079FC0320FFF7EAFA6E
:10BB0000200001D000F08EFA022309AA572117481D
:10BB1000009503F06BFC0320FFF7DCFA200001D056
:10BB200000F080FA02230AAA57211048009503F07A
:10BB30005DFC0320FFF7CEFA200001D000F072FA7E
:10BB40000BB030BD08100000090300000A1500000A
:10BB50000C0C00000D0C000010FF00001102000092
:10BB6000120200002101000030FF0000A42000208C
:10BB70008307FF22DB0E9A408907090E99400028AF
:10BB80000BDA0007000F0838830808489B001818D4
:10BB9000C36993430B43C3617047830804489B0008
:10BBA0001B181868904308431860704700ED00E0C8
:10BBB00000E400E010B50649002008604860886095
:10BBC000C860034940390860486004F019FC10BDA2
:10BBD0004011014010B50249024802F0E3FF10BDD8
:10BBE000886600200030004010B504F09FFB10BDB7
:10BBF00010B506484068002805D08047002801D0CD
:10BC000000F010FA10BD02F091FF10BD24220020B8
:10BC100010B503F035F8002805D01F491D484860CD
:10BC2000C8131E4988611E48018CC9B201290BD175
:10BC3000828C120708D1028D1206120F042A03D13A
:10BC4000828D1206120F0AD0012921D1818C090799
:10BC50001ED1018D0906090F0A2904D007E0114AF7
:10BC600001219160F5E7828D1206120F05D00D2992
:10BC70000ED1808D0006000F0AD10B480168012902
:10BC800004D00A49016001680129FCD1C021416149
:10BC900010BD0000DFFF07C000050040006C004041
:10BCA000C00F00F00006004000EC06407593000055
:10BCB00010B504F0C3FD10BD2021020C01D01021ED
:10BCC0001046020A01D010460839020901D0104678
:10BCD000091F820801D01046891E420801D0881E23
:10BCE0007047081A704730B47446641E2578641C87
:10BCF000AB4200D21D46635D5B00E31830BC1847C1
:10BD000002E008C8121F08C1002AFAD17047704724
:10BD1000002001E001C1121F002AFBD17047F7B5D6
:10BD200084B00025168807461580406B144600280D
:10BD300013D003780598032E51D302210170218876
:10BD40001122491C89B2218042542188491C89B2A0
:10BD5000218043542088401C2080386B00281DD04F
:10BD600005462088059902461232B24237D8112280
:10BD70000A5420881022401C80B220800A54208857
:10BD8000401C20800F202A5C2388401ECA54228831
:10BD900040B2521C22800028F5DA002538462030B7
:10BDA0000290807B002806D033462246059902F097
:10BDB000B3FF050014D10298407B002806D032461C
:10BDC0002146059800F0C6FC050009D1B878002886
:10BDD00023D0059886462088001DB04202D90C2049
:10BDE00007B0F0BD684679DF0028F9D1218803202B
:10BDF0007246505420881921401C80B22080115472
:10BE000020887146401C80B2208041186846008816
:10BE100004F0A8FD218840182080F878002817D069
:10BE2000218803230A46FB56C91C0598B142D6D87F
:10BE30000221815421880122491C89B22180425467
:10BE40002188491C89B2218043542088401C2080CD
:10BE50007868002817D021880023C3560A46C91CD9
:10BE60000598B142BBD80221815421880A22491C7D
:10BE700089B2218042542188491C89B221804354CF
:10BE80002088401C2080388900280AD00094384639
:10BE90000196062202210830059B04F0E2FD050010
:10BEA0009ED1388A00280AD000943846019607228D
:10BEB00003211030059B04F0D4FD050090D1388B90
:10BEC00000280AD000943846019615221421183013
:10BED000059B04F0C6FD050082D1386A002806D013
:10BEE00033462246059901F071F90500D8D1786AE8
:10BEF000002806D033462246059903F005F90500CF
:10BF0000CED10298007B002807D03346224638461F
:10BF1000059903F0E3FF0500C2D13878002807D067
:10BF2000334622463846059903F022F90500B7D179
:10BF3000284655E710B598B0382101A8FFF791F9C8
:10BF4000022168460171012484710621C171848235
:10BF50000C48069024210FA8FFF783F910A804725B
:10BF600009480A4B00881390002014900146009065
:10BF70000FAA01A800F094F9002801D000F052F8AF
:10BF800018B010BD98200020AE21002051F501000E
:10BF90003EB50446042001901648029069462046AA
:10BFA00001F086FC002805D01349884201D000F03A
:10BFB00039F83EBD0F482038018CC90714D00F4A0C
:10BFC0000C21C08AA7DF00280ED00D4988420BD073
:10BFD000082809D0891C884206D0112804D00949B4
:10BFE000884201D000F01EF8204601F017FC00281E
:10BFF000DDD13EBDA020002040800000FFFF0000FA
:10C000000230000001340000BFF34F8F04490348A1
:10C01000C860BFF34F8F00BFFDE700000400FA05C2
:10C0200000ED00E00EB50021029000916A460191FA
:10C030000148FFF7E9FF0EBD01400000014B1B68FE
:10C04000184700008C63002038B50C46A2680C230A
:10C050005A43064B09789D58054A126A00920246D7
:10C06000204608302369A84738BD000070660020CC
:10C07000D821002010B5064914230A785A435118D4
:10C08000091DFFF7E1FF042003F0D6FF10BD0000FB
:10C0900014640020094B9B68002B07D0002A07D0AE
:10C0A000002805D00068037C002B03D008207047CF
:10C0B000072070474174426100207047FC21002036
:10C0C000FFB59007002581B014460E46002832D1F6
:10C0D0001B4F002C31D003F067FE049878610320D9
:10C0E000387033461821224600204B43BC60183478
:10C0F000C10089180D704D708E704C601C19401C69
:10C100000328F5DBFD607D7001240E48BD70240519
:10C11000046003211420FFF72BFD0B4804600B4C37
:10C120000198A06003211120FFF722FD60683861AB
:10C13000002005B0F0BD0720FBE7BD60FBE7000075
:10C14000FC21002080E200E000E100E00015014059
:10C15000FEB50D461B4917468968044600292AD0BA
:10C16000002C28D0052D01D20720FEBD60690028D3
:10C1700021D0607C012820D0002604F035FCC000CE
:10C180001049019089684018694604F057FC00285E
:10C1900015D0012101700C49446049680830E2C0A3
:10C1A000084901988968411868460078487004F089
:10C1B000FFF80020FEBD0820FEBD2E46DDE704206E
:10C1C000FEBD0000FC21002000150140F8B5134D14
:10C1D0000446A96800291CD0002C1AD060690028E8
:10C1E00017D00026267404F0FFFBC700A868694634
:10C1F000381804F023FC00280DD00221017044609F
:10C20000A868391868460078487004F0D1F83046BC
:10C21000F8BD0820F8BD0420F8BD0000FC21002076
:10C220001CB56A461080019100210248FFF7ECFE20
:10C230001CBD000002400000F0B50C4693B01F2169
:10C240006A461180072600279180002809D0C1780E
:10C2500049070DD502A9FFF762FD002809D102ADFB
:10C2600001E000251780002C0ED0E078002802D0D5
:10C27000304613B0F0BD01AA0AA92046FFF74FFDD2
:10C280000028F6D10AAA02E06846002287806846A4
:10C290008088C3B268460088C1B2284672DFE8E7EA
:10C2A00070B50D4604991646040042D0002E40D0C9
:10C2B000424800224271C360016124223146404855
:10C2C000FEF7A8FF00F0CEF83D493431084610389B
:10C2D00001602031816038215C38FEF7C2FF3848A8
:10C2E000217838380170A1788170E178C170617867
:10C2F00041706269216942610161E268A168C260BE
:10C3000081600146E369A269CB618A61616A0029A3
:10C3100019D00146AC310246B83241628A60636A84
:10C320001B880B80616A436A898899800021436A6F
:10C3300006E00E2070BD666AB668765C5654491CED
:10C340009E888E42F7D8A16A00291CD01C4AAC32C4
:10C3500011460C398A608162A36A9B888B80A16A2E
:10C36000836A098819800021836A04E0A66AB66896
:10C37000765C5654491C9E888E42F7D82C210A5D63
:10C380000F4918390A73216A002909D00B49143161
:10C390000162226A52884A80216A026A09881180F1
:10C3A0006168002904D00549891D416061684160C8
:10C3B000034829463838FFF73FFF70BD4821002069
:10C3C0007861002010B50288194C102A17D000217E
:10C3D000112A1AD01B2A11D1007A00280ED16079B7
:10C3E000012814D0022819D003281DD0042805D113
:10C3F0002171E2680846002A00D0904710BD817D77
:10C400000129FBD18088208110BD617010BD022000
:10C4100005E021690029F9D0884710BD032000F00C
:10C4200029F80028F5D110BD032020710420F6E77B
:10C430004821002010B5022801D003280ED1084C55
:10C44000207800280AD000202070607900F012F8CF
:10C45000002803D02169002900D0884710BD0000C2
:10C460004821002010B507210148FEF7FAFE10BD53
:10C4700060210020F0B5784C87B06071002606A8D6
:10C48000069603F023FA0127082802D0002808D1D5
:10C4900004E006A801F078FF002804D106980028DF
:10C4A00001D02770D4E0FFF7DDFF6C4D68780028DD
:10C4B00002D06079012807D0A87800280CD06079D4
:10C4C000012801D0022824D1E168002903D0E770B7
:10C4D0000820884700E0E6706079012808D1687874
:10C4E000002809D05C48193003F0C4F9002803D0B3
:10C4F0006079022802D00CE002206071A878002840
:10C5000005D05548193003F0B5F9002801D10320B2
:10C510006071287B002804D16079032801D10420B0
:10C520006071287E002804D16079042801D16671E9
:10C530002671E16800290AD06079032801D0042817
:10C5400005D12878002802D06078002817D0A6707E
:10C5500018216846FEF785FE684606700196067249
:10C560000396607901280ED0022815D03B4E243660
:10C5700037465C3F03281BD004285DD13AE0A77002
:10C5800007208847E4E73448183001906846077070
:10C5900046820682277152E02F4818300190684683
:10C5A000077029894182A98801820220207146E012
:10C5B000A88A69464882288A08822848243004F0DC
:10C5C000BFFA002805D02878002802D0607800281B
:10C5D00001D003202FE00220694608720420039650
:10C5E000F8701E4800213838FFF726FE002830D1A9
:10C5F000052020E0A88B69460882288C48821748CD
:10C60000243004F09DFA002805D02878002802D0B4
:10C610006078002801D004200DE0022069460872ED
:10C6200004200396F8700D4800213838FFF704FE07
:10C6300000280ED1062020716079002803D06846BA
:10C6400073DF002805D1E168002901D020798847EF
:10C65000002007B0F0BD00004821002078610020D4
:10C6600070B5054601461C220E48FEF7D3FD0E4C60
:10C67000002626702968002906D00822201DFEF712
:10C68000C9FD201D7ADF02E00748001D7BDF00287E
:10C6900007D1401E60806670044A00210448FFF7FD
:10C6A000F9FC70BD44620020882100208509020049
:10C6B000B40B0200F8B5214C028800271E4DE68914
:10C6C000102A15D01E49112A21D0122A2DD0502A05
:10C6D0001CD1C288801DB24218D14289022A15D1CC
:10C6E000427B037B10021843C007C00F0CD112E03D
:10C6F0008188698001461048082218310C30FEF705
:10C7000089FD6F70002E01D100F0A8FDF8BD00205A
:10C71000C04368806F700868FFF758FD0028F5D0A7
:10C72000A1690029F2D08847F8BD08228118024883
:10C730000C30FEF76FFDE7E78821002044620020FF
:10C74000B40B020010B502480068FFF73FFD10BDB2
:10C75000B40B02007CB5054608880C4609309042AF
:10C7600001D90C207CBD684671DF0028FAD12188F0
:10C770000820685420881B21401C80B22080295446
:10C78000208800A9401C80B2208040190622013177
:10C79000FEF740FD20886946801D80B22080097820
:10C7A000002900D0012129542088401C208000202D
:10C7B0007CBD000030B585B00D46040039D0002D99
:10C7C00037D06868002834D00020C0431A4B20803E
:10C7D0000FCB049301AB07C318486946088001A832
:10C7E000811E63DF002822D1221D69460120A0DFBF
:10C7F00000281CD168468078A071204600F084FF94
:10C80000002814D1204600F03BFF00280FD1294614
:10C81000204600F0BBFF002809D16868A062A86824
:10C82000002800D0E062064901200870002005B011
:10C8300030BD0E20FBE70000B80B020030150000F1
:10C840009C2100203EB5002828D0002926D0826AED
:10C85000002A23D00A88102A21D0112A30D0502A49
:10C860001FD0512A1AD10A460446891D0878022889
:10C8700014D14888238A984210D1907B04280DD087
:10C8800006280BD0052809D02046891C02F0FAFEA4
:10C89000002803D0E16A002900D088473EBD89887E
:10C8A00010E0CB8802899342F8D108226B461A70B7
:10C8B0000A7C1A7212310191826A694690473EBD24
:10C8C0000021C94301803EBD30B585B0002822D08B
:10C8D0000388134CA34220D0124B1B78002B1CD092
:10C8E000104B10255B1C1D705970002401259A7097
:10C8F000032269460A820094019402940394028AF6
:10C900000A808D708C8004A9029103930088694687
:10C91000A6DF05B030BD0E20FBE70820F9E70000D8
:10C92000FFFF00009C21002010B5044601F0A4F890
:10C930002146094800F05EF82046FFF7BBFE064896
:10C9400021465030FFF77EFF204602F011FE2046C0
:10C95000FFF738FD10BD0000B460002017B5028C51
:10C960000C4B85B09A4212D00022009201920292A2
:10C97000039204896B461C8001249C709A8007AA4C
:10C9800003910292008C6946A6DF08B010BD082012
:10C99000FBE70000FFFF000038B504460868206090
:10C9A000087960710020C0430D46208400202221B8
:10C9B00008554C2108530121684681700C490180BB
:10C9C000A21D69460120A0DF00280FD1294620467C
:10C9D00002F010F8002809D1A868002805D02946DF
:10C9E000204600F05DF8002800D1002038BD00008E
:10C9F0000D18000010B50A88102A06D0112A06D09A
:10CA0000502A01D102F0B6FE10BD898801E0002154
:10CA1000C943018410BD000000B51C4887B04068C0
:10CA20000590002348221A4905A803F055FB002869
:10CA300001D0FFF7F7FA6A460121002003F034FB2A
:10CA4000002801D0FFF7EEFA01206946087311486B
:10CA500003F0F6F9002801D0FFF7E4FA684603F086
:10CA600019FB002801D0FFF7DDFA0B4803F008FBA3
:10CA7000002801D0FFF7D6FA084803F047FB00284A
:10CA800001D0FFF7CFFA07B000BD0000500B020045
:10CA900060600020E81F002029C901000103020096
:10CAA000F0B58FB00D4606461C216846FEF7D9FB4F
:10CAB0006846017802200143684601700024019411
:10CAC000039404940594012708A8069487701549D7
:10CAD000684601840794E97B0177297C4177807F50
:10CAE000F9210840F721801C0840EF210840410847
:10CAF000490068468177142109A8FEF7B2FB08A80F
:10CB0000099007A80A9068468785C4850786A868A3
:10CB10000D903346F088103309AA6946A2DF0FB0A2
:10CB2000F0BD0000382A00001CB5044681786A4632
:10CB30000C4802F0DFFE002812D160781C21484327
:10CB400009491C2340181A46694602F099FF064815
:10CB500006494C30807A80000A5821466846904742
:10CB60001CBD0000D021002040630020DC0B02002F
:10CB7000F8B5054608206946088001236A461A4927
:10CB80002846AADF194800688047B12044DF002802
:10CB900001D0FFF747FA11DF002801D0FFF742FA72
:10CBA000134C606913DF002801D0FFF73BFA2846D9
:10CBB00000F010FD01210F4A880510600E48026840
:10CBC0000D4B002080330D468540154204D0C6062B
:10CBD000F60E0D46B5401D60401C2028F3D3606959
:10CBE00000F00CF8F8BD0000E46600201C220020D4
:10CBF0000010001080E200E000E100E010B5FEF758
:10CC0000A9FA10BD10B5032000F060F9002801D08A
:10CC1000062800D1002010BDF8B50746002423489F
:10CC200002E0641C042C1AD2A2008258BA42F8D145
:10CC3000042C14D21D481E4E0C38002929D001297D
:10CC40000ED002290BD16000201880194578002DE4
:10CC500005D018480169002901D028468847F8BD49
:10CC600061006118755C8E19717800290CD011492A
:10CC70000A224968806851430E4A521CFFF768FA3D
:10CC8000002801D10B4847700A48B178143001558B
:10CC9000DDE78068FFF79AFA0648610061181430F2
:10CCA0008919005D8D78A842D1D0F8BD840B0200AF
:10CCB00034610020D020002010B5054A0146127AC8
:10CCC0000020D20702D0084600F004F810BD000092
:10CCD000D0200020FEB57A4D0722EB6892059A43DA
:10CCE00002936B6800939C0006461B1900200121EB
:10CCF000019349050746734C3300FEF7F4FF180D06
:10CD00001515374755677C887F8891DE9E9E9E9ECD
:10CD10009EC8CED1D8DEDE140F21029A4905914378
:10CD2000A160E7602F70FEBDA260E76060680F221F
:10CD300052055040800209D5A160E760022E02D161
:10CD4000E120C0000AE07D20400107E0E160A7602B
:10CD5000022E01D1C82001E0FF2091302E70642105
:10CD6000FEF72EFA0099414300223FE0A260E760FF
:10CD700060680F2252055040800204D5A160E76030
:10CD800019204001EAE7E160A760E3E7A260E760FD
:10CD900060680F2252055040800202D5A160E76012
:10CDA000D1E7E160A760D7E7A260E76060680F2283
:10CDB00052055040800202D5A160E76001E0E160C9
:10CDC000A7602E700098410000220FE0A260E7608B
:10CDD00060680F2252055040800202D5A160E760D2
:10CDE00001E0E160A7602E700099002236480068DB
:10CDF000FFF7AEF9FEBDA260E7601BE061680120AD
:10CE0000800502468A43A2600140E16010E060684C
:10CE1000012189050A468243A2600840E060E3E7F9
:10CE20006068012189050A468243A2600840E060EB
:10CE30000199C9E7E160A7602DE023484068FFF74A
:10CE4000C5F911218A1B01D0002807D00F22E968FB
:10CE500052051140A160E760EF60FEBD0121C905E8
:10CE6000E960012A0CD91046C82148436421FEF725
:10CE7000A7F969680022414313484068FFF768F941
:10CE80000F22E96852051140E160A760FEBD0F2145
:10CE90004905A160E7602E70FEBD07229205AAE752
:10CEA0000D214905A160E76001218905C2E7032141
:10CEB000C905A160E7608910BCE70F214905B9E702
:10CEC000D020002000050050780B0200F0B50021B2
:10CED0000B4C0C4D03273F048A00A25892005619B0
:10CEE000326801238B40034000D00323BA431B0464
:10CEF00013433360491C0429EED30020F0BD000029
:10CF0000840B02000007005002490918202008562F
:10CF100070470000B0630020F8B53E481422017845
:10CF200051430C18E0680C2148433B4927694018DD
:10CF3000058941890091241D466802F06DFD014676
:10CF40003846FEF73DF9002932D000200099A2882A
:10CF50004D436188AE198918CD1900222F49002848
:10CF60000A6109D002F058FD6188884222D0B5429A
:10CF700002D1A08800281DD0A06803281AD002F092
:10CF80004BFDA188CA1901461046FEF719F9234C3A
:10CF90008808E06002F040FD01462846FEF710F9DF
:10CFA000002911D00020B5422FD000280ED02CE04F
:10CFB0000120CBE702F030FD01463846FEF700F9CC
:10CFC00016494861032021E00120ECE7ADB2B7B279
:10CFD00002F022FD01463846FEF7F2F8064602F05E
:10CFE0001BFD01462846FEF7EBF8864201D1781B6F
:10CFF00009E002F011FD064602F00EFD014628464A
:10D00000FEF7DEF8701A80082061022003F014F8A1
:10D01000F8BD00001464002070660020D8210020B4
:10D0200010B50748142201785143081800790428E4
:10D0300002D000F059F810BD012002F0FDFF10BD34
:10D040001464002010B50B481422017851430818CD
:10D05000094AC18811620079012806D0032801D04D
:10D06000042801D1FFF758FF10BD012002F0E4FFB2
:10D0700010BD000014640020D82100201422504369
:10D08000054A002180180171C18002220161C2603D
:10D09000416101817047000014640020F8B5104C14
:10D0A000069E65781E2D19D027787D191E2D00D378
:10D0B0001E3D14277D432D1928716A6103C929611A
:10D0C000E860EB802E816078401C60700548007835
:10D0D000002801D1FFF7B6FF0020F8BD0420F8BDFD
:10D0E00014640020D821002010B50D4C14212078A4
:10D0F000484301190020091DFEF7A6FF2078FFF71D
:10D10000BDFF6078401E60702078401CC0B2207067
:10D110001E2801D100202070002002F08DFF10BDDC
:10D1200014640020F8B52348C16800293ED00E6879
:10D1300021494C680769C078E11B0D022D0AED1CDE
:10D14000002814D101201D4A000450601B4A403AB7
:10D1500050601B49400008601A4908601A490120C4
:10D1600008602F20FDF7E6FF12490120C870B54284
:10D1700000D23546E81900020F4B000A4033186010
:10D180000D4A5168001B091B0902090A0002000A26
:10D19000C91C814209D9506818602F20FDF7CAFFC9
:10D1A00001200749400480390860F8BD02F0FCFD09
:10D1B000F8BD0000FC210020001501404013014093
:10D1C00080E200E000E100E000100140F8B5064612
:10D1D000108814468446801D0D46984201D90C20C3
:10D1E000F8BD32880720062AFAD31927FF01184B09
:10D1F000BA4201D99A42F3D171880629F0D3B942D3
:10D2000001D99942ECD19A4203D0994201D08A4285
:10D21000E6D805216046295420881221401C80B29E
:10D22000208029542088401C80B2208041193088F9
:10D2300003F098FB2188401880B220804119708843
:10D2400003F090FB2188401820800020F8BD0000EA
:10D25000FFFF000010B5FEF7E5FE10BDF8B516485B
:10D2600001F000FD144D00260C3D144C002807D0A1
:10D27000616900291CD001206A461070684616E0DA
:10D280002878002805D06169002911D06846067009
:10D290000DE0687800280DD0A168094800220068D8
:10D2A000FEF756FF002803D0A169002900D0884767
:10D2B0002E70F8BD6168F0E79421002044620020E0
:10D2C000B40B020070B5094B04469E7A0820002575
:10D2D0000E4207D00648844202D01889A04202D1EB
:10D2E0000020156070BD052070BD00008063002027
:10D2F000FFFF00000C214843064910B501224018E9
:10D300008272911E0181FF21C1720721FDF7A9FFE1
:10D3100010BD00008063002010B5134C2079000779
:10D320001FD46069401C6061E068002801D00420BF
:10D3300004E001F0C9FC002803D0022002F0D6FF6F
:10D3400010BD2069002809D06068C10701D0032002
:10D35000F4E70121084360600020EFE7FFF760FE7B
:10D3600010BD02F0B7FF10BDD821002010B508484D
:10D3700041680A0708D48A0702D501221143416097
:10D38000022002F0B3FF10BD02F0A4FF10BD0000A8
:10D39000D8210020FEB50E46044681786A4623480F
:10D3A00002F0A8FA002826D160780C21204F4843CB
:10D3B000C019807A40061FD4022E1DD0012E1DD028
:10D3C0001C4DA0781C2148431B49002341181C22F6
:10D3D0006846A847002813D0022E0CD020780C21D4
:10D3E000484313490C314018807A144980000A5888
:10D3F000214668469047FEBD114DE2E7114DE0E73A
:10D40000022EF8D060780C214843C019817ABF22DF
:10D410001140817260781C21484305494039411808
:10D420001C231A466846A847D8E70000D0210020F0
:10D4300080630020590202007C620020CC0B0200B5
:10D44000C9FC0100E9FB010070B50546114A12480C
:10D4500000241C2363431B189B7EFF2B04D0641CF9
:10D46000072CF6D3104670BD0A78022A09D01C2278
:10D4700062431018FD22827607221030FDF7CAFEA3
:10D4800004E01C2161430818FE2181762C700022E3
:10D49000E8E70000438000007C620020F7B5052526
:10D4A0000F4F06460024002E0AD01C206043C019EE
:10D4B000072231461030FDF7E6FE002807D00AE0CB
:10D4C0001C206043C019018B0298814203D101984E
:10D4D0000025046002E0641C072CE4D32846FEBD4E
:10D4E0007C6200207CB5054681B26A46074802F09E
:10D4F00001FA040008D17421684602F027FA0400FA
:10D5000002D1284602F0C2F920467CBDD02100207D
:10D5100070B505460C46100001D0FEF783FD20785B
:10D52000152802D12846FEF733FD002070BD00000B
:10D530001FB56946087302F075FA002801D0FEF79E
:10D5400071FD03A800F006FD002801D0FEF76AFD7A
:10D5500001A805210130FDF784FE694649790120C3
:10D5600001438122114030314A06520E69464A7108
:10D5700007228A711022CA71054900916946087113
:10D58000044800F04DFE002801D0FEF74BFD1FBD02
:10D5900011D501008C20002001B50449684600F037
:10D5A0004BFA002801D0FEF73DFD08BD20220020E7
:10D5B00010B50978002908D003220121FFF784F96A
:10D5C000002801D0FEF72EFD10BD0088FFF7D0FA2D
:10D5D00010BD000010B58AB000242349009400F06B
:10D5E00087FC002813D101A91F4800F029FC00285E
:10D5F0000FD01E491C4800F00FFD002801D0FEF797
:10D6000011FD1A4800DF002801D0FEF70BFD0AB01B
:10D6100010BD0599072215481031FDF7FBFD134891
:10D620001022C01D0599FDF7F5FD10481122183094
:10D630000199FDF7EFFD0D4801990A222A301231B8
:10D64000FDF7E8FD094800DF002801D0FEF7EAFCFD
:10D6500001200090042008906846099007A90794CB
:10D66000014800F07FF9CEE720220020B0660020BC
:10D670007047000001490860704700001C2200202C
:10D6800030B58FB005461C216846FDF7EAFD6946B6
:10D6900008780821084310221043694608700024C6
:10D6A00001940394049405940694A87908A98870B9
:10D6B000144869460884601C00070794000F0C7723
:10D6C00010304877887FF9210840F721801C0840F6
:10D6D00010430121084369468877142109A8FDF702
:10D6E000C0FD08A8099007A80A9069468C851720F4
:10D6F000CC8508860D942B46A888103309AAA2DF92
:10D700000FB030BD3115000030B58FB005461C217B
:10D710006846FDF7A6FD6946087804210843694676
:10D720000870002401940394049405940694A87945
:10D7300008A98870144869460884601C000707948B
:10D74000000F0C77103048778A7FF9200240F720CD
:10D75000921C0240EF200240012002438A771421EC
:10D7600009A8FDF77EFD08A8099007A80A90694658
:10D770008C851420CC8508860D942B46A888083308
:10D7800009AAA2DF0FB030BD32150000F0B58FB08E
:10D790000F4605461C216846FDF763FD6846017883
:10D7A00002263143017000240194039404940594EB
:10D7B0000694A97908A88170174968460184601CFD
:10D7C0000107090F684610310794017700200146D0
:10D7D00068464177817FF9200140F720891C01408C
:10D7E000EF2001400120014368468177142109A8F8
:10D7F000FDF737FD08A8099007A80A9068468685B6
:10D80000C48506860D972B46A888203309AA694649
:10D81000A2DF0FB0F0BD0000341500003EB5044695
:10D820001E4801781E48002930D0002C2FD02178C6
:10D8300000292BD11B4900250968002926D0A17891
:10D84000072927D21C20184A48438018807EFF28C9
:10D8500020D012486A46103002F04CF8002815D14A
:10D8600060230422694602A802F00AF90299491CC1
:10D870000CD0602304220D49684602F025FA0028E6
:10D8800004D1A178084A89001C3A55503EBD04488D
:10D89000801D3EBD024808303EBD0000C021002072
:10D8A000088000008C6300207C620020C80B02000E
:10D8B0003EB50C4627490A782749002A30D08A1DF0
:10D8C000002805D0002C03D00278002A28D101E0DE
:10D8D00010463EBD214A1268002A21D081780729CE
:10D8E00020D21C221E4B4A43D218927EFF2A19D006
:10D8F0001B4AA3681C3A002B17D08900535081782B
:10D9000014486A46103001F0F5FF0028E1D1602389
:10D910000422694602A802F0B3F8002809D016E0F4
:10D9200008463EBD0C4808303EBD89005158A160F4
:10D93000E5E70298401C0AD0642310226946A068DB
:10D9400002F09EF80028EFD1029961603EBD0248C6
:10D9500038303EBDC0210020088000008C630020CC
:10D960007C620020FEB505462D480C4601782D4806
:10D97000002925D0811D002D23D0002C21D0A268A4
:10D98000002A1ED0297800291AD1274909680029C0
:10D9900016D0A978072916D21C22244B4A43D21844
:10D9A000927EFF2A0FD06A780C235A431E4B0C3B01
:10D9B000D218927A120703D56068042806D207208D
:10D9C000FEBD0846FEBD17480830FEBD1448184E7F
:10D9D0006A46103001F08EFF0028F6D16023042241
:10D9E000694602A802F04CF8002803D10298401CB6
:10D9F00000D0104E60230422211D6846B047002845
:10DA0000E3D1642310226846A16802F05DF9002882
:10DA1000DBD1AA78054B92001C3BA1689950FEBD52
:10DA2000C0210020088000008C6300207C62002060
:10DA3000E9FB0100C9FC01000C4A13780C4A002BD9
:10DA400011D0931D002905D0002803D000780028AC
:10DA500009D101E018467047064B1B68002B02D025
:10DA6000087000207047104670470000C021002059
:10DA7000088000008C630020F0B591B00546FF24BB
:10DA8000002007940290E9480078002849D0E84F28
:10DA90003868002845D001A800F04EFA002801D0CF
:10DAA000FEF7C0FA281D05902C2069460883FF2048
:10DAB000002688710E710396DD4C28880C3C1028D6
:10DAC0000ED0A88803AA0221FFF7FCFB002807D18B
:10DAD00003980C2141430919CA7A69468A71487131
:10DAE0002A881320192A7DD00FDC102A1BD0112A76
:10DAF00055D0132A77D0142A13D103980C21484308
:10DB00000019C07AFF286FD0A1E0CA491A2A6CD048
:10DB10001E2A65D0522A04D1B87A8000095801A87B
:10DB2000884711B0F0BDC44F03AA01213846FFF762
:10DB3000C9FB0028F5D103990C20484302220019A3
:10DB4000827211236A4613745171A9880181294692
:10DB5000083107220091FDF75DFBE87DC10707D082
:10DB60004108B2480830405CFF2808D0079006E022
:10DB70003A4607A90098FFF791FC002837D103998E
:10DB80000C22514309190798C8728A7A08231A434C
:10DB90008A726946887101A8FEF7C6FF27E00398DC
:10DBA0000C2148430119887AFD2210408872010730
:10DBB00006D5C0090DD0002101A8FFF7EBFB08E056
:10DBC00068468079FF2804D001F060FEFF20694696
:10DBD000887103980C225043102100198172122081
:10DBE000694603E08BE043E014E0E4E00874324669
:10DBF00004A901A8FEF722FA6846007C122890D1F9
:10DC000003980C2141430919897A012989D0FFF72A
:10DC100071FB86E72A8A07A90020FFF73FFC00284E
:10DC20000ED103990C22514309190798C8728A7AB8
:10DC300008231A438A726946887101A8FEF774FFA7
:10DC400003980C2148430019C07AFF2806D0039896
:10DC50001C21484376494C394018029003981C21F6
:10DC6000484376494218A8880023029986DF58E77E
:10DC70006946087403980C2148430119887A0422E4
:10DC800010438872CA7AFF2A0BD040221043887250
:10DC90001620694608740023A8881A4685217FDF6C
:10DCA00021E007A8FFF7D0FB00281FD00646002080
:10DCB0000D9003990C224A431219D27A1C235A431D
:10DCC0005E4B0F90D2180E921C2251431A46C4325A
:10DCD0008918109009910A900B900C903A1DA88811
:10DCE00009AB00217FDF002893D180E769460798C0
:10DCF000887103990C2251430919C872D7E7787AC1
:10DD00000C2140084000787203986F460246484351
:10DD1000011984468B7AFB2003408B7214203874DF
:10DD2000287A002806D05806DFD4C87AFFF7DAFB35
:10DD30002E7A5CE7687A4007D7D5B879FF28D4D027
:10DD400008273B438B726B7B9B0708D51C2503463A
:10DD50006B433A4D5B199D7E6D086D009D76CB7AC5
:10DD6000FF2BC2D06346E35C022B10D01C22504331
:10DD7000324D072240191030FDF74CFA6846807981
:10DD80001C2148434019817EFD2211400DE01C21D9
:10DD90004A4327494C3951184A8A1C21484327498C
:10DDA00040180283817E490849008176012101A83B
:10DDB000FFF7F0FA1BE7287A0209012A23D10007AE
:10DDC000000F01281FD103980C2242431219927AA6
:10DDD000120718D5242148431549303940181A2113
:10DDE0000830FDF73EFA16206946087403980C21A6
:10DDF00048430119887A602210438872787A022198
:10DE0000084378720FE003980C2250430019827A7D
:10DE100080231A43827215206A461074B87A8000F3
:10DE2000095801A888470026E1E60000C02100202B
:10DE30008C630020EC0B0200FFFF00007C620020DE
:10DE4000F0B5064626480C460178264889B00029D8
:10DE50003FD0811D002E3ED0002C3CD031780029CF
:10DE600037D1214900250968002932D0B078072828
:10DE700033D21C211D4F4843C019807EFF282CD06F
:10DE8000E560B07865614843C01920611648A56017
:10DE90000C306060684620601148B17807AA1030E5
:10DEA00001F028FD002814D11C231A4607A9684652
:10DEB00001F0E6FD00280CD1E560B1781C22514349
:10DEC000C919656121610849A5600C316160694625
:10DED000216009B0F0BD0846FBE702480830F8E7CA
:10DEE000C0210020088000008C6300207C6200209C
:10DEF00030B50446002903D00878002814D101E089
:10DF00000B4830BD0B480023006800280CD0094A9C
:10DF1000FF2088700C3A15890520A542F1D14B707D
:10DF2000D07A8870002030BD0148801F30BD0000CD
:10DF30000E8000008C630020002806D0FF210170B5
:10DF400041708170C1700020704701487047000027
:10DF50000E800000F0B585B0040036D029480025B9
:10DF60000560457285722846FFF7C4F925482421CB
:10DF70003038FDF776F90026FF27304601F086FCA1
:10DF800021488755761C072EF7D374216846818077
:10DF90000721C1801D481C4900900831684601F0E6
:10DFA000C5FD00280FD1184E0120083E30702078A2
:10DFB00000280CD069468888C988484381B2304619
:10DFC000103001F0C3FC05B0F0BD1148FBE7114F64
:10DFD00000240D48A1B202AA083001F08BFC0028F1
:10DFE00009D11C206043C01900231C2202A901F0A2
:10DFF00047FD002801D03570E5E7641C072CE8D305
:10E00000E1E700008C630020C821002099E00100B6
:10E010000E8000007C6200200B4610B51A491B4A96
:10E020000978002920D0911D002805D0002B03D0AD
:10E030000178002918D101E0084610BD144909688B
:10E04000002911D0114A8178D21EFF290ED01C2040
:10E05000414310480918887E800705D407221846D6
:10E060001031FDF7D7F80022104610BD4078FF2888
:10E07000FAD00C21484306490C394118887A8007A8
:10E08000F2D507221846ECE7C021002008800000E6
:10E090008C6300207C620020FFB55C4891B0006872
:10E0A0001A9F1E46002873D0742F71D86846FFF758
:10E0B00043FF002801D0FDF7B5FF00246846047037
:10E0C0000471254605970696A9B20FAA504801F09B
:10E0D00011FC002806D108220FA91198FDF7D3F8EA
:10E0E000002817D06D1C072DEED368468578FF2DCC
:10E0F0004ED01298032810D046481C21301AFDF744
:10E100005FF8012707281ED204A802901398002860
:10E110000BD011E068468570E7E7742F03D04020EC
:10E12000694608716BE02020FAE738463849A84074
:10E1300010394968084260D0284602F019FC2020B6
:10E140006946087149E031481C214C38301AFDF706
:10E1500037F800281DD02D4824213038301AFDF71B
:10E160002FF801002C482BD040216A4611712B4911
:10E170008E4244D0274AA9001C3A5158B1423CD1A2
:10E1800004A90291C07A854227D16846447024E0F0
:10E1900033E004A802902020694608714C701B49A6
:10E1A0000B940C310C9158390791694689781C22DF
:10E1B0005143184A05908918089107A906910CE067
:10E1C000302269460A714C70CF70807A800704D47F
:10E1D000114824212438FDF744F812986946022892
:10E1E000087910D0022108436946087104A80290FA
:10E1F00001A96846139AFDF721FF15B0F0BD6946E5
:10E2000008790321EFE73843EFE700008C63002033
:10E21000D02100207C62002080630020C80B020017
:10E2200070B5064618480D46007800280ED01749EC
:10E23000002E0ED0002D0CD02868002809D0144CD8
:10E240002168002907D011480A3870BD0F48801F87
:10E2500070BD084670BD20600522691D201DFCF7B9
:10E26000D9FF2879A072207A022140084000084393
:10E27000FB2210402072E07901231843084310402C
:10E28000E0710020307070BDC02100200E800000C1
:10E290008C63002010B50E4900234A788C78A24286
:10E2A00012D0521CD2B24A70022A00D14B704A7866
:10E2B000074B920018339A58026008691018000240
:10E2C000000A0861012010BD0360002010BD00009D
:10E2D000FC21002010B5002803D0112802D0FDF742
:10E2E000C9FE10BD0248082241681143416010BDBB
:10E2F000D821002010B51C4C217820464068012907
:10E3000006D0022929D0032912D1000717D513E01E
:10E31000000711D415481422017851430818C18808
:10E32000A28B891A0904090CC18002D001F096FF62
:10E3300010BDFEF7D9FE10BD00F0DAFE10BD606919
:10E34000401C606100F0C0FC002803D0207801F080
:10E3500073FE10BDFEF764FE10BD607804498000B6
:10E360000858804710BD0000D82100201464002008
:10E37000100C020010B528DFFFF7ACFF10BD10B580
:10E3800029DFFFF7A7FF10BD002804D00349496D1E
:10E39000016000207047032070470000EC660020F9
:10E3A0000EB56946112008721248FCF765FF82B26B
:10E3B000104902A87CDF002801D0FDF733FE0D20B4
:10E3C000800178DF002801D0FDF72CFE00200090AE
:10E3D0005022694601900A80A0224A808880FF204E
:10E3E0009130C88068467ADF002801D0FDF71AFE18
:10E3F0000EBD0000B42100200020704700207047AF
:10E4000000207047F8B506464078242104464C4366
:10E4100024490C2250436118224A00254B682432BB
:10E420008018AE462F469C46002B0CD0827A1346AD
:10E43000D20908D05A0606D40D461A4A614689B256
:10E44000175908358E46174C008924343B467246CE
:10E450002946A9DF0B2819D0002800D01248012F27
:10E4600013D170780C214843001900890F4AA7DFA7
:10E4700000280AD00E49884212D0082810D0891CE2
:10E4800088420DD011280BD00020F8BD70780C21E7
:10E49000484301230019008972462946A9DFE0E7B5
:10E4A0000148F8BD5C63002041800000FFFF0000D0
:10E4B0000230000070B50C46014660782422084DF9
:10E4C00050434019382301F0DBFA002807D1617866
:10E4D0002422514349194A68521C00D14A6070BD38
:10E4E0005C630020F3B589B00D461A206946888325
:10E4F00068780C2103274843224E3B468019008947
:10E5000007AA6946AADF002838D168782421484341
:10E51000741A001969468A8B0830FCF7B4FE00288B
:10E52000687807D0242148430119496800290DD093
:10E53000154E0CE00C2141438919897A89071DD4B5
:10E54000242148430019FCF78CFE17E00F4E27509A
:10E550006846828B687824214843001942606878B5
:10E560004843001969460830FCF754FE68782421B6
:10E5700048430119382324220998B04700200BB0E2
:10E58000F0BD000080630020C9FC0100E9FB010030
:10E5900010B5FFF737FF10BD10B5FFF78BFF10BDAB
:10E5A00010B5FFF79FFF10BD70B51B4C2079000719
:10E5B0002ED41A481422017851430D182E6901F007
:10E5C0002BFA0146E8882A89761E80188019FCF704
:10E5D000F7FD21690025002909D06169814206D132
:10E5E000E560606801210843606000200AE000F0F7
:10E5F0006BFB002802D00220E56003E020690028C0
:10E6000003D0032001F072FE70BDFEF709FD70BD5E
:10E6100001F060FE70BD0000D821002014640020CD
:10E62000F0B595B0142101A8FCF71BFE072108A83E
:10E630000173DFA000680E90DEA000680F901F211C
:10E6400008A801742021DC4F01753868DB4C401CA0
:10E650003860E089DA49401C82B2E2812379088877
:10E660000025002B06D1A379002B03D0824200D9CC
:10E67000E581A571E2890126824200D1A67082421D
:10E6800021D9D0A000680690CFA00068079026711D
:10E69000208A0223401C2082C84807AA5721243020
:10E6A000009500F0A3FE002801D0FDF7BBFCC34895
:10E6B000022306AA57212430009500F097FE002877
:10E6C00001D0FDF7AFFCA078002828D00C2000F086
:10E6D000FBFE052000F0A2FD0120BC49000388607C
:10E6E000052000F09BFDBA480FC8099306AB07C38D
:10E6F000B24800231A4606A9243000F021FE002863
:10E7000001D0FDF78FFCAD48243000F0FDFD052061
:10E7100000F084FDA570FDF765F9FDF731F8AD480F
:10E72000218A0088814201D9E6702582A44909889E
:10E730000818E189884200D2E681E078002852D0AA
:10E74000142106A8FCF78DFD69460E763868020E86
:10E750004A76020C8A76020ACA760877E5709748EC
:10E7600002230EAA57212430009500F03FFE002816
:10E7700001D0FDF757FC112206A99748FEF7EEF8E5
:10E78000002809D0082807D09449884204D0944929
:10E79000884201D0FDF746FC8D4810300FC8139316
:10E7A00010AB07C3854810A9243000F031FE0720C4
:10E7B00000F08AFE1E2000F087FE072000F09CFE7D
:10E7C0001E2000F099FE0A2000F028FD25710C2083
:10E7D00000F07AFE052000F021FD0C2000F08CFEF8
:10E7E000052000F01BFD7548007900287DD0734896
:10E7F00002230FAA57212430009500F0F7FD0028CE
:10E8000001D0FDF70FFC6D4801230BAA57212430DE
:10E81000009500F0EBFD002801D0FDF703FC6E4AE7
:10E82000664806230C3A5721243000F0CDFD00281D
:10E8300001D0FDF7F7FB614801230CAA57212430D2
:10E84000009500F0D3FD002801D0FDF7EBFB624CF2
:10E850005A480C3C0123A21D5721243000F0B4FD7E
:10E86000002801D0FDF7DEFB002000905348012373
:10E870000DAA5721243000F0B9FD002801D0FDF782
:10E88000D1FB4E480123E21D5721243000F09CFDAE
:10E89000002801D0FDF7C6FB4F4920780C398A7853
:10E8A0004B7811021943000449BA084325464D49E3
:10E8B000FCF786FC0790E878A988000449BA084369
:10E8C0004949FCF77DFC0690E879FCF7B1FD03228D
:10E8D000D243FCF797FD04460091A879FCF7A8FD08
:10E8E0002246009BFCF7DCFC00E05EE0FCF7AEFD9E
:10E8F0000090FCF7DDFF002469460C713868020EB9
:10E900004A71020C8A71020ACA7108724C72079825
:10E910008872CC72069808734C7300988873A87933
:10E92000C873E8790874287A4874687A8874A87A71
:10E93000C874E87A214D087528786978084212D0A1
:10E9400068460671112201A92348FEF707F800283E
:10E9500009D0082807D02149884204D0204988429C
:10E9600001D0FDF75FFB688A2049884211D82879D9
:10E9700000280ED0684604711D4A204601AFEC61A4
:10E980003B5C698A401C5354491C69821128F7D3A7
:10E99000E8611649688A491C884201D36C82AE72CC
:10E9A0000D48703844668466C46615B0F0BD00003A
:10E9B00006800000040F0000B0210020802000200D
:10E9C000AA210020210100000903000000050050D9
:10E9D000580B0200AC210020B4600020043000007D
:10E9E00001340000F010000054240000C33B00007C
:10E9F00044220020F0B5002406460D46601C0107A5
:10EA000095B0090F08A810310C940174297B41744A
:10EA1000817CF9273940891C81741C2105A8FCF7E9
:10EA200020FC6846017D14200143684601750CA84E
:10EA300006940A900894099401220B9408A88276FF
:10EA40001749684601870D94697B08A80175A97B61
:10EA50004175817DF7203940891C0140EF2001403C
:10EA6000114308A8817514216846FCF7FAFB0EA82B
:10EA700000900DA801900FAA0021304600F012F876
:10EA80000146684601811421448181810FA80490C8
:10EA90003346F08808336A4605A9A2DF15B0F0BDF9
:10EAA000372A0000F7B542790025002A00D0042556
:10EAB0002222135C0222002B00D01543CBB2FF2987
:10EAC00007D901221543029A090A5370917003264F
:10EAD00002E0029902264B7004464034A1890029C5
:10EAE00001D010210D43002716E0B11C142909D9CB
:10EAF000A189C91B4A007900091824302431FCF788
:10EB000089FB0CE0029B7A0012189B19928C1A70F8
:10EB1000120A5A70CEB27F1CA189B942E5DCA089E5
:10EB2000C01BA081029805703046FEBDF8B51C4C94
:10EB30002078002833D02069002807D00026E0681C
:10EB4000002805D00025002E04D011E00126F6E7AC
:10EB50000125F8E7684652DF052804D0002804D0D4
:10EB6000FDF760FA04E0012602E021690098884779
:10EB7000002D10D1608869460880A06861DF0528F3
:10EB800004D0002804D0FDF74DFA04E0012502E08E
:10EB9000E168A0688847002EDCD0002DD3D0F8BDF6
:10EBA000242200207FB5064608680C46002803D1C1
:10EBB0002A492B48FDF734FB25462035697828780B
:10EBC00001910090AA1DD11E3046E36901F001FDBC
:10EBD000002819D1E87800281DD1207B022801D017
:10EBE000032818D12269E169914214D16269E26176
:10EBF000E37B2B70217E8906C90F6970032804D03E
:10EC00003146204601F088FC7FBD00913146204608
:10EC100001F062FD7FBD20460C3007C801AB07C381
:10EC2000E878002100280ED00920C0013218506C6D
:10EC30005064820701D5012002E0400705D502207B
:10EC40006A46107001E0684601702971207E400715
:10EC5000E0D422686846616890477FBD840C02005A
:10EC600081030000418805480288914204D340880E
:10EC7000814201D801207047002070478C2100207C
:10EC80001048018CC9B2012917D1818C090714D110
:10EC9000018D09060A0F03D1828D1206120F0ED0C4
:10ECA000090F012903D1828D1206120F07D0032903
:10ECB00003D1808D0006000F01D000207047012095
:10ECC00070470000C00F00F070B50E4814220178A4
:10ECD00051430C18256900F09FFE0146E088228907
:10ECE0006D1E80184019FCF76BFA07494A69824289
:10ECF00006D3824202D10869002801D0002070BDED
:10ED0000012070BD14640020D8210020800701D0AC
:10ED1000002070470120704730B51588EC1C9C42DC
:10ED200001D90C2030BD02244C5513881C255B1CD6
:10ED30009BB21380CD5413885B1C9BB213800128B7
:10ED400007D0022807D0032807D0042807D00720BF
:10ED500030BD002004E0012002E0CC5401E003209B
:10ED6000C8541088401C1080002030BDF8B52C49D4
:10ED7000C8680A690C780F798968864694460091BC
:10ED80003EE00099E20055182A7836E018235343F4
:10ED90006968521CC918AB78D2B2934200D10022E4
:10EDA0000B78022B02D0032B27D123E04E680346B9
:10EDB000014603E0B14204D00B46C96900291CD0CA
:10EDC000F8E7002919D08B4208D1C069002805D185
:10EDD000144F0126BE600026B44601270E68C9699B
:10EDE000D961002909D00B689B190B6005E00174FB
:10EDF000C06900E000210028F9D169789142C5D1AD
:10EE00002146641EE4B20029BBD1054962460A616D
:10EE1000C8600F71704501D00120F8BD0020F8BD19
:10EE2000FC21002000100140F8B5044631480026BE
:10EE3000C168009107784EE02E48F90080680D18EF
:10EE400043E0002C02D02046E4691FE02878182116
:10EE500041436A68401CC0B251182870AA78904299
:10EE600000D12E700A784868012A30D1027C002A2D
:10EE70002DD18A684260CA6882600A69C2604969A5
:10EE800081611C490979002900D04660194943680D
:10EE90000A699C46991A0902174B090A994202D23B
:10EEA0008268891807E06146511A09028268090AD6
:10EEB0008A4202D9511A016000E0066046600121D1
:10EEC00086600174C66101F07BFA002CB9D1287804
:10EED00069788842BAD138467F1EFFB20028ABD18C
:10EEE0000448C1680098814201D00120F8BD00208B
:10EEF000F8BD0000FC210020FFFF7F0088B0002447
:10EF00000C2000F0E1FA0C2000F0F6FA0023664A2B
:10EF100007211846FDF7D4F8002801D0FDF782F844
:10EF2000624A01216248FDF7B5F8002801D0FDF7DB
:10EF300079F8FDF771FD2046FEF7FAFAFFF730FA8F
:10EF4000FCF7F8FF01F012F81C216846FCF789F97C
:10EF50000520C00301900F200004002502900095B9
:10EF6000032168460173534881896846C18105744D
:10EF700051480590514806906846FDF771FB0028FE
:10EF800001D0FDF74FF84A4801210022C90300686B
:10EF9000FDF7DEF8002801D0FDF744F80320FDF767
:10EFA00069FA002801D0FDF73DF8454C454F464E23
:10EFB00048DF002801D0FDF735F8E07A00281DD0A1
:10EFC000A07A00286CD0A08A4049091A081840A1EC
:10EFD00009680091020A69464A708870042235481F
:10EFE000FDF7BCFC002808D0082806D0B84204D0A1
:10EFF0003849884201D0FDF715F8E572607900289C
:10F0000013D035A000680090042269462948FDF716
:10F01000A5FC002808D0082806D0B84204D02D4905
:10F02000884201D0FCF7FEFF6571E079002813D01B
:10F030002AA000680090042269461E48FDF78EFC55
:10F04000002808D0082806D0B84204D021498842B8
:10F0500001D0FCF7E7FFE57130780028A8D020A1A7
:10F0600003C900902048019100886A46010A517046
:10F0700090701E480088010AD170107105226946FF
:10F080000C48FDF76BFC002808D0082806D0B842D1
:10F0900004D01049884201D0FCF7C4FF357087E7DF
:10F0A000608AA18A401A92E7085E002021E60100EA
:10F0B000500B0200B460002065F6010055D201003B
:10F0C0008020002004300000A6210020C43B000066
:10F0D0000B0000EE013400000C010AEEA1010AEE63
:10F0E000D100000000000000AE210020AA21002075
:10F0F00010B504480822416891434160007800F04F
:10F100009BFF10BDD821002070B5144682880E46A2
:10F1100005462088111D4118921C994201D8FE2AEB
:10F1200001D90C2070BD521C32542088FF21401C94
:10F1300080B2208031542088401C80B22080811908
:10F14000288801F00FFC2188401880B22080AA880E
:10F15000002A09D0A968002908D08019FCF75AF8BC
:10F160002088A98840182080002070BD072070BD2D
:10F17000F8B50F46017814460546012902D1687892
:10F18000002806D02088821C9A422DD8012902D05E
:10F1900006E00720F8BD69784118891C994223D8F8
:10F1A000181A801E86B2684606802188B81C081886
:10F1B00069467DDF0028EDD12878022805D169460F
:10F1C0000988B14201D809210AE00821012805D1A6
:10F1D0006878B04202D86A46108001E0684606802E
:10F1E00068460088FE2801D90C20F8BD2288401C02
:10F1F000B8542088401C80B2208039542088694649
:10F20000401C20800988401820800020F8BD002084
:10F2100070470020704700207047000031B5054C52
:10F2200004E0401E00902046FBF764FF0098002891
:10F23000F7D138BDE703000070B50D460446032939
:10F2400005D0012D03D01549CA20FCF7E9FFA0071E
:10F25000C20EFF209040A907090E9140002C0BDA46
:10F260002207120F083A93080D4A9B009B18DA698F
:10F2700082430A43DA6107E0A3080A4A9B009B180D
:10F280001A6882430A431A60E106C90E01208840C9
:10F29000054908600549086070BD0000400C020087
:10F2A00000ED00E000E400E080E200E000E100E0CA
:10F2B00070B5054600792821484311494418203487
:10F2C000A078002804D1FF200E491530FCF7A8FFD4
:10F2D000002103222868C943120282189160C11DCF
:10F2E000FF31FA310A6800220A600521090241183B
:10F2F0000A601F220121D2018018C167A17070BD70
:10F3000088660020840C020070B50546007928212B
:10F310004843094944182034A078012803D00749FC
:10F32000FF20FCF77DFF052128680A028018016094
:10F330000220A07070BD000088660020840C0200CE
:10F34000F8B507460C460079282148431A49451864
:10F350002E4600202036B070002C03D13979174C8E
:10F3600009010C190CC528607071307121463846AE
:10F37000083D01F085F8216811488A0011495218AA
:10F3800010606268920051180860052338681B02FB
:10F3900006CCC0188160C260216841622868083CC0
:10F3A000002805D03868217B000B40B2FFF744FFEE
:10F3B0000120B0700020F8BD88660020240C0200F7
:10F3C0000C060000000700503EB5074D2C69AD69E2
:10F3D000009402956C466170A37001920022694608
:10F3E00000F042F83EBD0000240C02003EB50025AE
:10F3F000069C009502956D466970AB700192002CD9
:10F4000001D0202200E00022294600F02DF83EBD68
:10F41000F8B505460E460079282148430F4947189C
:10F420003C462034A078002803D10D49E420FCF7A5
:10F43000F7FE3868002806D02868C203D10E0120E4
:10F440008840084908602846FFF732FF31462846C1
:10F4500001F016F80020A070F8BD000088660020BA
:10F46000840C020080E100E0F8B506460D46007904
:10F47000282148431149174644182068002811D113
:10F480002878022806D10E490E48FCF7C9FE2068EC
:10F49000002807D12878032804D15B200849C00040
:10F4A000FCF7BEFEB80701D00620F8BD3B462A4651
:10F4B0002046316801F056F9F8BD0000886600204A
:10F4C000840C0200D7020000024A03218000801849
:10F4D000016070470007005082000648101802685B
:10F4E00003231B049A430260026809040A43026072
:10F4F0007047000000070050012181400148C160B1
:10F5000070470000000500500121814001488160E2
:10F5100070470000000500500349401800680128AA
:10F5200000D00020704700000060004040580028D4
:10F5300000D0012070474058002800D001207047BB
:10F540000322120280184068084000D00120704752
:10F5500010B5002809D0032806D10220FDF7ACFB26
:10F56000002801D0FCF75EFD10BD00F051FD10BD7C
:10F57000F8B501880025344C012925D010291ED06A
:10F5800011291BD16946112008703048FBF774FE21
:10F5900082B22E4968467CDF002801D0FCF742FD8C
:10F5A000FCF7C8FC0120FCF765FF2570657000289A
:10F5B00001D0FCF737FD0020C043E082F8BD808811
:10F5C000E08201202070F8BD237AA07A1F4684468D
:10F5D00087431D481E4E828A1E4881181A48002FF4
:10F5E000408A16D0824214D8824212D011221A4880
:10F5F000FDF7B4F9002808D0082806D0B04204D09E
:10F600001649884201D0FCF70DFDA08A1130A08276
:10F6100013E067463B420CD0904205D9824203D0AA
:10F620000C49A0820918E1E70D4B9A4201D88242A9
:10F63000DCD12572012060726070A18A0848814285
:10F64000C1D9A582A572F8BD80200020B421002078
:10F650000430000044220020B46000200134000087
:10F66000C43B000010B50078002807D104483B21B6
:10F67000C08A76DF002801D0FCF7D4FC10BD000062
:10F6800080200020F0B58BB00C460546022168466C
:10F69000017301268674228982826289C282204691
:10F6A0000C3000270690089768460184478407A815
:10F6B0000990A98A288808AAA5DF002804D0E96A49
:10F6C000002919D0884717E06846808BC007C00F13
:10F6D00012D068460782288803A9A8DF002812D123
:10F6E000217B20460D300B00FCF7FDFA09420F1C70
:10F6F00022242729402B4200FF20FE306946088241
:10F70000288803A9A8DF0BB0F0BD6A4617700BE08C
:10F7100006221BE069460E720190AA6A28469047AD
:10F720000020F0E76A4616706289022AF2D2EFE7FB
:10F73000022000E00320694614E00420FBE70520D6
:10F74000F9E76189032905D2032208212846FDF73C
:10F75000BBF8D8E7417802780802104369468880F0
:10F7600002D006200870D8E70720FBE70920E2E76F
:10F770000322EBE7F8B58C1DC98882890027012593
:10F78000324E914212D1618902290FD10268002ABA
:10F790000CD0617B237B090219432940694602D0C2
:10F7A0000F70357101E00D703771904720880E2879
:10F7B00024D1207BA02822D00BDC0D2836D0452870
:10F7C0001CD137617761214AB7610020A7751032DB
:10F7D00026E0A2281ED0A42810D1E0893C2140BAFE
:10F7E0007081207C48430A38F080607C052800D373
:10F7F00030817570164835700570F570F8BDE08978
:10F8000040BAF060208AF16840BA09040143F1600F
:10F81000104818E0B570F8BD497B1154401CC0B2C7
:10F8200021180B7B002BF7D10B480CE00B480C493F
:10F8300000880988884201D10A4804E00A48057016
:10F840000A4807700A480570F8BD0000A42100208E
:10F850008620002087200020AC200020922000205D
:10F86000942000208520002088200020892000206E
:10F870008B2000200021425C002A01D0012070472B
:10F88000491C0629F7D300207047000070B50546D3
:10F890001C200D4968434418204611300621FBF70F
:10F8A000E0FC20461021FBF7DCFCFF212174002046
:10F8B000A176C0432083284601F05AF8024A00206E
:10F8C000A9001C3A505070BD7C620020074909799C
:10F8D000490701D408207047002804D0044949781A
:10F8E0000160002070470E2070470000D8210020E2
:10F8F0001464002070B5134B1B795B0701D40820FA
:10F9000070BD002817D0002A15D00368022B10D232
:10F910000C240D4D5C432E59002E0AD04668601908
:10F9200004894589406861436543711828188842F5
:10F9300003D8072070BD0E2070BD136000205160F9
:10F9400070BD0000D821002070660020FEB504467E
:10F9500026480E460079400701D40820FEBD002C41
:10F9600025D02068022836D20C21214D4843295841
:10F97000002930D040194189028940685143091853
:10F980006068814227D9FFF7C1F9002811D060686B
:10F99000019021680C2251434F1979680091401A57
:10F9A00039890D46FBF70CFC002914D103E00E2029
:10F9B000FEBD1020FEBD29463046FBF701FC0029A4
:10F9C00009D1002E07D0788900994543019849193B
:10F9D0008019884201D90720FEBD00200246009010
:10F9E000334621460320FDF759FBFEBDD8210020F8
:10F9F0007066002010B507484469601C06D000F00E
:10FA00000BF801462046FBF7DBFB10BD0120000789
:10FA1000406910BD0010001001200007006980B28D
:10FA20007047000070B500241248254604704470E9
:10FA30002846FDF723FB6D1C1E2DF9D30E4D6C805F
:10FA4000FFF7D8FFC61EFFF7E7FF46430B4AAE603D
:10FA500000206C610C214143545089180C81401CDA
:10FA60004C810228F6D32C70AC610420EC616860F4
:10FA7000002070BD14640020D82100207066002092
:10FA8000FFB5284881B000791F4616460C4640074E
:10FA900002D4082005B0F0BD002C1DD0019800282C
:10FAA0001AD02068022815D20C211F4D484329582E
:10FAB00000290FD041194A890889496842435118E1
:10FAC0006268914206D9002E04D0B04202D3F119E7
:10FAD000814203D90720DDE70E20DBE70198FFF71D
:10FAE00015F900281BD03846FFF710F9002816D06A
:10FAF0006068FFF70BF9002811D060683246C11921
:10FB00000198FBF787FB009620680C2148432D588D
:10FB1000002202212046019BA8470020BAE71020BE
:10FB2000B8E70000D821002070660020F8B52C4D01
:10FB3000044628790E46400701D40820F8BD002C61
:10FB400020D0002E1ED0206800281BD0FFF764FFB5
:10FB50000146A088814213D3102811D3E0880028E1
:10FB60000ED0FFF747FF471EFFF756FF4743E288D7
:10FB7000A188A8684A431218974201D3890703D085
:10FB80000720F8BD0E20F8BD6988022926D0316013
:10FB90000C22144B51437060CA18506020685850B2
:10FBA000A0881081E0885081FFF736FF0646FFF7F6
:10FBB00033FFA188E288401E514340183146FBF7CD
:10FBC00015FB0446FFF728FF0146A86861430818A3
:10FBD000A8606888401C68800020F8BD0420F8BD3B
:10FBE000D821002070660020F8B5044621481E4642
:10FBF000007915460F46400701D40820F8BD002FB4
:10FC00001CD0002C1AD02168022915D20C204143A7
:10FC100019484258002A0FD00818428901894068C3
:10FC20004A4310186268904206D9002D04D0A942B8
:10FC300002D3A819884203D90720F8BD0E20F8BDC9
:10FC40003846FFF763F8002811D03046FFF75EF81A
:10FC500000280CD06068FFF759F8002807D02B4621
:10FC60003A46214601200096FDF718FAF8BD10200B
:10FC7000F8BD0000D82100207066002010B51149A1
:10FC800002460878002811D004280FD0022A16D086
:10FC9000032A0BD10A79120711D48A69521C8A618E
:10FCA000032A08D0022802D000F0C6F910BD487817
:10FCB00000F01CFB10BD0D20FCF7DCF910BDFEF7B9
:10FCC00019FB10BDD8210020F8B5044621481E4676
:10FCD000007915460F46400701D40820F8BD002FD3
:10FCE0001CD0002C1AD02168022915D20C204143C7
:10FCF00019484258002A0FD00818428901894068E3
:10FD00004A4310186268904206D9002D04D0A942D7
:10FD100002D3A819884203D90720F8BD0E20F8BDE8
:10FD20003846FEF7F3FF002811D03046FEF7EEFF0D
:10FD300000280CD06068FEF7E9FF002807D02B46AA
:10FD40003A46214604200096FDF7A8F9F8BD102098
:10FD5000F8BD0000D82100207066002010B51048C2
:10FD60001049C08A884205D0132176DF03E0FCF7F2
:10FD700059F902E074DF0028F9D10020FCF79CFF5C
:10FD8000002801D0FCF74EF9FCF7DCFC002801D07C
:10FD9000FCF748F9FF20F530FFF740FA10BD0000EE
:10FDA00080200020FFFF000070B501240B49600493
:10FDB00008600B4940108860094940398860094D46
:10FDC0006C602F20FBF7B6F9AC60074D00242F20A4
:10FDD0002C61FBF7AFF9EC7070BD000080E100E032
:10FDE0004013014000100140FC21002030B50A48BA
:10FDF000FF21C57D0022094C0931094B002D6250BD
:10FE000007D09969437EC268D154417E491C41762E
:10FE100030BD986930BD0000F8630020002000402C
:10FE2000002500401FB501236A4613701072034875
:10FE3000019106C8684690471FBD0000F863002086
:10FE400008B502490020009108BD00008020002074
:10FE500010B50121202805DA1A4A8140114201D14A
:10FE6000194810BD8107C90E002808DA0207120FD1
:10FE7000083A9208154B9200D218D26904E0820821
:10FE8000134B9200D2181268CA401106890F042938
:10FE900011D200290FD002290DD00E494C68C3069B
:10FEA000DB0E01229A40002C08D0400980000B583C
:10FEB00013430B5004E00448401C10BD0648026088
:10FEC000002010BDFC06FFBC0120000000ED00E09A
:10FED00000E400E03822002000E100E0FFB5074622
:10FEE000806A81B0144600283DD000253846203075
:10FEF000009033E00C20B96A68430E18B088801C6B
:10FF0000FE2802D90C2005B0F0BD22880299401CC1
:10FF1000885420881622401C80B2208002990A54FE
:10FF20002088401C80B2208002994118308800F05F
:10FF300019FD2188401880B22080B288002A0AD09A
:10FF4000B16800290FD0029BC018FBF763F9208825
:10FF5000B188401820806D1C0098EDB2007BA8424B
:10FF6000C8D80020CFE70720CDE7000030B589B022
:10FF7000032168460170142101A8FBF772F90024DF
:10FF800001256846019405720390601C0107090F62
:10FF9000684610310174601C0107090F6846103172
:10FFA0004174601C0107090F6846103181740120FB
:10FFB000014668461031C17400200146684601754B
:10FFC00001A90F48FCF7E8FC002801D0FCF72AF84B
:10FFD0000C4807900694089468460583084806A9CB
:10FFE0005030FCF7E7FB002801D0FCF71BF806486F
:10FFF000FDF740FB0548007BFDF7CEFA09B030BDA8
:020000040002F8
:10000000B4600020B1D501005DFD0100802000201A
:1000100010B50020FCF750FE002801D0FCF702F8D4
:10002000FCF7F0FD002801D0FBF7FCFF3CDF0028C7
:1000300001D0FBF7F7FF10BD10B50F49002808707D
:1000400009D0012811D0022812D0032802D1486912
:10005000FEF790F910BD00208861C861074840781C
:100060000028F7D0FCF7EEFF10BD00F0F7F810BD48
:1000700000F056F810BD0000D821002014640020C4
:10008000002803D00249C860002070470E20704746
:10009000242200201CB5034901910091694660DFCC
:1000A0001CBD00008020002070B50E460546144699
:1000B00014211046FBF7D5F8012000212080216192
:1000C000217326726572002D00D0A072002070BDD1
:1000D00010B5FBF799FF10BD70B5002901D08C0752
:1000E00001D0072070BD074C0125A1606280064940
:1000F000636010DF0028F5D125701620FFF7A8FEF9
:1001000070BD000024220020D1000200002803D08E
:1001100002490861002070470E2070472422002009
:10012000F8B5164C1422606840084000606014481E
:10013000017851430E183769FFF76EFC01463846C7
:10014000FBF73EF805466061FFF766FC0146F08864
:100150007F1EC019FBF734F802228542606801D186
:10016000104300E090436060E1681040084303D012
:10017000002000F0BBF8F8BD0220FAE7D8210020EB
:100180001464002010B502484069FEF7F3F810BD72
:10019000D821002010B5FFF72DFC441EFFF73CFCD2
:1001A0004443FFF739FC04494A69521E5043CA6868
:1001B0002146FEF7E4F810BDD8210020F8B510481C
:1001C0001422017851430C182569FFF725FC0146DC
:1001D000E088228980184019FAF7F2FF0F46FFF7EE
:1001E00009FC461EFFF718FC4643E0882289F119F6
:1001F0008018044A40191269FEF7C1F8F8BD0000E2
:1002000014640020D821002070B5FFF705FC0546D6
:10021000FFF7F0FB441EFFF7FFFB60432946FAF7A8
:10022000CFFFFEF7A7F870BD70B5FFF7F5FB8608A6
:10023000FFF7F2FB0749496948430446FFF7DAFB39
:10024000451EFFF7E9FB684332462146FEF797F863
:1002500070BD0000D82100200020704770B5144800
:100260001422017851430C18241DFFF7D5FB618837
:10027000104E884211D2FFF7CFFB61880D1AFFF7AD
:10028000CBFB8208A188E068401821694019491910
:10029000FEF775F8FFF7C0FB07E0A288E06880185A
:1002A0008A082169FEF76BF86088F06170BD000074
:1002B00014640020D821002010B5054800790007FB
:1002C00003D4012000F012F810BD00F003F810BDB7
:1002D000D821002010B504480822416891434160AC
:1002E000407800F003F810BDD82100200249487082
:1002F0000249800008580047D8210020FC0B02006A
:1003000010B50446FFF7BAFC2046FCF793F810BD81
:1003100010B505480079000702D4FCF781FE10BD36
:10032000FFF7D8FF10BD0000D8210020FEB51F4CFC
:1003300000252769E06802906846FDF7ABFF019051
:10034000FEF714FD06460198002822D000230098ED
:10035000E16817E00E680A46864202D9301A086042
:1003600012E0801BF31800261660D668D169B446E7
:10037000002E07D0FE183602360A56606646966092
:10038000D56115460029E5D12846E160FEF74CFD10
:1003900006E02846FEF748FD002801D1002E02D0D5
:1003A0000298FCF7BFFE00202071FEBDFC2100205A
:1003B00001200249000508607047000000E200E0EB
:1003C00010B50E4BD968002906D002680C68A2420D
:1003D00004D8A21A0A60C161D86010BD0B4604E0BF
:1003E0000B46C969121B002904D00C689442F7D34C
:1003F000A41A0C600260C161D86110BDFC2100200C
:10040000F8B51D4DEC68002C34D01C48002740681E
:100410002969401A0602360A2068B04218D8361AEE
:10042000C7192246107CE46900280FD00020107400
:100430006B69002B07D0916950699847002805D057
:10044000FBF7F0FD02E0516990698847002CE3D189
:100450006978A878814206D1401CC0B2A8700228F1
:1004600001D10020A87004490006800D18310F50FA
:10047000FFF79EFFF8BD0000FC21002000150140A1
:10048000F8B50C460968224D8900204849190860D2
:1004900061688900491908602068FFF735F86068CD
:1004A000FFF732F819482168401C89004919086093
:1004B00061688900491908600420FAF72BFE0025BD
:1004C000144F012620793969C140C807C00F02D0F6
:1004D000002D19D00FE0207831468140F9600420CA
:1004E000FAF718FE2068FFF70FF80420FAF712FE5B
:1004F0006D1C092DE6DB20798640FE600420FAF7AA
:1005000009FE6068FFF700F8F8BD00000C06000067
:100510000007005000050050FFB50027FF2285B0FE
:100520000C4605321E46A750FF222532A750FF2257
:100530001D32A750FF220932A75005462035CA1D9B
:10054000FF32AF71FA32EF70012B0FD0012313602D
:100550000122226222600268002A09D010498160CB
:100560008068032109026118486015E00223EEE764
:10057000014626312330039102900020019000961D
:100580002046079B039A029900F023F80028F4D133
:10059000E878002800D00327384609B0F0BD0000F5
:1005A0008602000030B51C78039D944208D20522D3
:1005B0001202095D8018C1611878401C187006E0AD
:1005C0000121002D02D0C161002030BD4161012018
:1005D00030BDFFB50F46097881B00446012904D02B
:1005E000039802780A98824201D1012600E0002691
:1005F000FF2025300025002907D02550FF201D3081
:100600002550FF200930255056E0FF212531204696
:10061000FEF78CFF00282CD1FF211D312046FEF76C
:1006200085FF002814D0FF201D302550FF212531E3
:100630002046FEF77BFF00281BD10B980090204638
:10064000039B0A9A0499FFF7ADFF002840D033E0DE
:10065000FF2109312046FEF769FF00282CD0FF203A
:1006600009302550FF2125312046FEF75FFF002885
:1006700006D0FF20253025500120606138701BE036
:1006800003990A980F78049ABC46874214D205232E
:100690001B02E3189B696746D3550A78521CD2B2F5
:1006A0000A70411E8A4203D102200102085101E072
:1006B000824201D001212162002E0BD0FF26053697
:1006C00031462046FEF732FF002803D0A551002016
:1006D00005B0F0BD0120FBE7FFB5054687B00C462D
:1006E0000020FF21109F053105906050FF2125312A
:1006F0006050FF211D316050FF2109316050012100
:1007000049022E4608512036B071F0700120206257
:10071000A060B31D0097029320460A9A0999FFF73B
:1007200041FF2868002807D00D48A860A868032169
:1007300009026118486010E023350A98009001977B
:1007400029462046099B029AFFF743FF0028F4D16F
:10075000F078002801D00320059005980BB0F0BD7B
:1007600086020000F8B5044600250320ED43000290
:1007700008188560254620352E79002E03D0A16803
:1007800041601120F8BD5807C017401C2871180798
:1007900001D50620F8BDA361C1CA0C34C1C40C3A0E
:1007A0009078287050680B266060F60150788E199A
:1007B000B06010780026183C01280ED0002801D126
:1007C000980601D5012000E0002068700090937821
:1007D00052682046FFF780FF05E06E7093785268FC
:1007E0002046FFF799FE21680029D3D12E71F8BD6C
:1007F000FF2107481D31002242500648828A816845
:10080000895C828A521C82820348C1617047000061
:1008100000200040F8630020002500401FB50021A3
:100820006A4611701072044882680192817506C888
:10083000684690471FBD0000F8630020F0B5454DA5
:10084000012185B049022846FEF77AFE01270026DD
:10085000414C002824D0FF2125312846FEF76BFEAD
:1008600000281DD0FF2025302E5081203B498000DC
:100870008860A07E002800D16F6002216846017068
:100880003749086808600390E17D68460172E068B6
:100890000190E675267606CC6846083C90472BE02A
:1008A00004212846FEF74CFE002825D0FF210931FF
:1008B0002846FEF740FE00281ED0FFF797FAE07D9D
:1008C000617E884218D1207E002808D0627EE168CF
:1008D000E0752069E0602676667610460AE0A07E24
:1008E000002800D16F6081201C4980008860E67577
:1008F000607EE168FFF796FAFF211D312846FEF77A
:100900001AFE00280DD0A18AA07D814202D2FFF7F5
:100910006FFF06E0FF211D316E50002801D0FFF768
:100920007DFFFF2145312846FEF705FE00280ED049
:10093000FF2045302E50A07E002800D02F60E07DA3
:10094000002804D0E675607EE168FFF76BFA05B019
:10095000F0BD000000200040F863002000230040AC
:10096000802400400870000A487002207047000090
:1009700001218140024842688A434260704700007A
:10098000C021002038B51549154A488890420FD03B
:100990004A78144C521CD2B24A70237B934208D33B
:1009A000091D75DF002803D0A169002900D0884700
:1009B00038BD00254D70217C002907D03B2176DF12
:1009C000002803D0A169002900D088476169002967
:1009D000EED068460570884738BD000088210020A9
:1009E000FFFF000044620020EFF30580C005C00D4A
:1009F0001AD0103840B2002808DA0107090F083968
:100A000089080C4A89008918C96904E081080A4AE2
:100A10008900891809688007C00EC1400806800F48
:100A2000012803D0032803D002207047002070471C
:100A30000120704700ED00E000E400E04278837898
:100A4000521CD2B2934200D100220378934201D1CA
:100A5000002070470A7041684078182250430818F7
:100A60007047FFB583B016460C9D0D9C1F460222B1
:100A700000950194039800F00CF8002807D13B463C
:100A80001022314600950194039800F002F807B057
:100A9000F0BDFFB583B0074600200C9C8646268833
:100AA00005463AE07868A9004218118868468180B6
:100AB0005188C1800022694601A865DF002839D12C
:100AC000684601780598814226D17046002801D0F9
