:020000040001F9
:10B00000C06B002069B1010083B1010085B101006E
:10B010000000000000000000000000000000000030
:10B0200000000000000000000000000087B10100E7
:10B03000000000000000000089B101008BB1010098
:10B040008DB101008DB1010031B9010055B8010089
:10B050008DB1010000000000B5B501008DB1010007
:10B060008DB101008DB101008DB101008DB10100E4
:10B070008DB101008DB101008DB101008DB10100D4
:10B080008DB1010035B801008DB101008DB1010015
:10B0900069B801008DB1010071B801008DB10100E6
:10B0A0008DB101008DB10100000000000000000022
:10B0B0000000000000000000000000000000000090
:10B0C0000348854600F064FA0048004755EB01004C
:10B0D000C06B0020401E00BF00BF00BF00BF00BF0C
:10B0E00000BF00BF00BF00BF00BF00BF00BFF1D165
:10B0F00070470000401E00BF00BF00BF00BF00BF80
:10B1000000BF00BF00BF00BF00BF00BF00BFF1D144
:10B1100070470000401E00BF00BF00BF00BF00BF5F
:10B1200000BF00BF00BF00BF00BF00BF00BFF1D124
:10B1300070470000056885F308884068FF2464B202
:10B14000EFF30585002D01D1A646004725460646AA
:10B1500021273FBAF0B40024002500260027F0B4D0
:10B16000F92040B2004700000321094802680A4361
:10B170000260084802680A4302600748804707489F
:10B180000047FEE7FEE7FEE7FEE7FEE7FEE700001A
:10B19000240500405405004091B80100C1B00100F1
:10B1A00030B50B46014600202022012409E00D465F
:10B1B000D5409D4205D31D469540491B25469540E7
:10B1C00040191546521E002DF1DC30BD70B500242B
:10B1D0002546002801DA01244042002901DA012530
:10B1E0004942FFF7DDFFAC4200D04042002C00D0C6
:10B1F000494270BD10B5431A934209D2831888188A
:10B2000003E0401E01785B1E1970521EF9D210BD7A
:10B2100003460B439B0703D009E008C9121F08C06F
:10B22000042AFAD203E00B780370401C491C521E1A
:10B23000F9D210BDD2B201E00270401C491EFBD20F
:10B2400070470022F6E710B513460A460446194631
:10B25000FFF7F0FF204610BD421C0178401C00297A
:10B26000FBD1801A704730B504460020034600E049
:10B270005B1C934203D2E05CCD5C401BF8D030BD38
:10B28000F0B507460846584087B0C00F0490480004
:10B290000E46590040084908BC1A884105D2384674
:10B2A00031461E4617460B460246580040081043DA
:10B2B0004CD0300D039040055900400D490D0590CC
:10B2C000401A0290402872DA18030121000B090588
:10B2D0000843019004980092002805D00199524239
:10B2E0000020884100920190029840210A1A019999
:10B2F000009800F0B9F805460C466B4607CB00F005
:10B30000D4F8C0197141039A0E0D0023D717564087
:10B310001A467A40164344D0049A002A2DD0029A45
:10B32000012A039A15DC1205C01A9141012636053F
:10B33000001C7141D20F059ED20700930192029624
:10B340002A46234600F0D1F807B0F0BD3846314612
:10B35000FAE71605224A0F46B218C01AB741012172
:10B360000905001C4F4100187F411146181879410A
:10B37000E20F10436D19644113E0E2076D081543B5
:10B380006408C2071443039A01261205C01A9141AA
:10B390003605001C7141CE07400830434908C018EB
:10B3A00051412A46234600F093F8CDE7FFE7049881
:10B3B00001224000C117121A00238B410498314624
:10B3C000C417381AA141EEE730B40124E407634002
:10B3D00030BC55E730B40124E407614030BC4FE78E
:10B3E0000000E0FF70B54B005B0803430BD04B003F
:10B3F0005C0D002633466542B341D417AD1AA34114
:10B4000002DB0020014670BD12053018514170BDAD
:10B410000EB505490291002100910A460B460191A3
:10B4200000F063F803B000BD330400004A000903D4
:10B430000123090B1B051943094B10B5520D9A4204
:10B4400001DA002010BD064B34339A4203DC9A1A0D
:10B4500000F01AF810BD03495118884010BD0000D3
:10B46000FF030000CDFBFFFF10B5202A04DB0146DF
:10B47000203A9140002010BD914020239C1A0346A1
:10B48000E3401943904010BD10B5202A04DB084664
:10B49000203AD040002110BD0B46D340D04020249C
:10B4A000A21A91400843194610BD10B5202A06DBA8
:10B4B000CB170846203A1041C1170B4306E00B4654
:10B4C0001341D0402024A21A91400843194610BDD0
:10B4D00010B5002B08DA0024401C614192185B4132
:10B4E0001A4301D14008400010BDF0B51FB482B02E
:10B4F00005460C0003D0084600F01EFA02E000F0FA
:10B500001BFA20300246009021462846FFF7ACFF88
:10B51000049B059A04460F4618431143084314D070
:10B52000184610431BD0009840210A1A1846059966
:10B53000FFF7AAFF05460E46009A05990498FFF703
:10B5400093FF084305D0012004E02046394607B0A8
:10B55000F0BD0020C11705430E432C43374300992B
:10B560000E986305401A7905E40A00220C43FD0A8F
:10B570000A3002D500200146E9E7010510196941AA
:10B580000C9C0D9D00196941FFF7A2FFDFE7000049
:10B59000064C0125064E05E0E36807CC2B430C3C26
:10B5A00098471034B442F7D3FFF78EFD50070200DE
:10B5B00070070200F0B50025FF248BB0013401268E
:10B5C0002F460195204603F04BFD002808D0474840
:10B5D0004068304204D046480021201835430160BD
:10B5E000241D76007F1CA4B2042FEBD3FF207D30F6
:10B5F00003F036FD002807D03E48002101604007D7
:10B6000005433D48006901903C4C280712D00127B2
:10B6100000262F420AD03A48B20011180869096979
:10B62000C004C00E8903A258890F90477F00761C82
:10B63000042EEED3002D57DA00200590401E4DE079
:10B64000A119403108788506AD0E42B2521C39D09E
:10B650000121A940089A0091114233D0800903903A
:10B66000284601F081FA800020580490002802D179
:10B670000398032826D103980099032802D105983E
:10B68000084305901F4AA80080180068019A8003AB
:10B69000800F114202D0022802D013E0032811D1FA
:10B6A0000399032907D102281CD00221284603F060
:10B6B000BFFC7F1CFFB20498002803D0049A2846E0
:10B6C00003999047761C042EBAD3002F0CD00A4859
:10B6D00000690199884207D00190059800273E46ED
:10B6E0000890ADE70321E1E70BB0F0BD0063004037
:10B6F000006000407C610040000500502C6000208C
:10B70000006500400007005010B58AB02EA0006808
:10B7100001902EA0006802902DA0006803902DA03B
:10B72000006804902CA0006805902CA0006806908A
:10B730002BA0006807902BA0006808902AA0006842
:10B7400000240990022301AA18210094274803F03D
:10B750001FFC022302AA18212448009403F018FCBD
:10B76000022303AA18212148009403F011FC0223AC
:10B7700004AA18211D48009403F00AFC022305AA1C
:10B7800018211A48009403F003FC022306AA18218A
:10B790001648009403F0FCFB022307AA1821134863
:10B7A000009403F0F5FB022308AA18210F48009427
:10B7B00003F0EEFB022309AA18210C48009403F0C1
:10B7C000E7FB0AB010BD00001E9000001F00000043
:10B7D000202F000021000000220000002324000090
:10B7E00024400000250000002E400000A42000207E
:10B7F0008307FF22DB0E9A408907090E9940002833
:10B800000BDA0007000F0838830808489B00181857
:10B81000C36993430B43C3617047830804489B008B
:10B820001B181868904308431860704700ED00E04B
:10B8300000E400E010B50649002008604860886018
:10B84000C860034940390860486004F061FB10BDDE
:10B850004011014010B50249024802F0D9FF10BD65
:10B86000046300200030004010B504F0E7FA10BD7A
:10B8700010B506484068002805D08047002801D050
:10B8800000F010FA10BD02F087FF10BD84210020E7
:10B8900010B503F021F8002805D01F491D48486065
:10B8A000C8131E4988611E48018CC9B201290BD1F9
:10B8B000828C120708D1028D1206120F042A03D1BE
:10B8C000828D1206120F0AD0012921D1818C09071D
:10B8D0001ED1018D0906090F0A2904D007E0114A7B
:10B8E00001219160F5E7828D1206120F05D00D2916
:10B8F0000ED1808D0006000F0AD10B480168012986
:10B9000004D00A49016001680129FCD1C0214161CC
:10B9100010BD0000DFFF07C000050040006C0040C4
:10B92000C00F00F00006004000EC064075930000D8
:10B9300010B504F00BFD10BD2021020C01D0102128
:10B940001046020A01D010460839020901D01046FB
:10B95000091F820801D01046891E420801D0881EA6
:10B960007047081A704730B47446641E2578641C0A
:10B97000AB4200D21D46635D5B00E31830BC184744
:10B9800002E008C8121F08C1002AFAD170477047A8
:10B99000002001E001C1121F002AFBD17047F7B55A
:10B9A00084B00025168807461580406B1446002891
:10B9B00013D003780598032E51D3022101702188FA
:10B9C0001122491C89B2218042542188491C89B224
:10B9D000218043542088401C2080386B00281DD0D3
:10B9E00005462088059902461232B24237D8112204
:10B9F0000A5420881022401C80B220800A542088DB
:10BA0000401C20800F202A5C2388401ECA542288B4
:10BA100040B2521C22800028F5DA0025384620303A
:10BA20000290807B002806D033462246059902F01A
:10BA30009FFF050014D10298407B002806D03246B3
:10BA40002146059800F0BAFC050009D1B878002815
:10BA500023D0059886462088001DB04202D90C20CC
:10BA600007B0F0BD684679DF0028F9D121880320AE
:10BA70007246505420881921401C80B220801154F5
:10BA800020887146401C80B220804118684600889A
:10BA900004F0F0FC218840182080F878002817D0A6
:10BAA000218803230A46FB56C91C0598B142D6D803
:10BAB0000221815421880122491C89B221804254EB
:10BAC0002188491C89B2218043542088401C208051
:10BAD0007868002817D021880023C3560A46C91C5D
:10BAE0000598B142BBD80221815421880A22491C01
:10BAF00089B2218042542188491C89B22180435453
:10BB00002088401C2080388900280AD000943846BC
:10BB10000196062202210830059B04F02AFD05004B
:10BB20009ED1388A00280AD0009438460196072210
:10BB300003211030059B04F01CFD050090D1388BCB
:10BB400000280AD000943846019615221421183096
:10BB5000059B04F00EFD050082D1386A002806D04E
:10BB600033462246059901F061F90500D8D1786A7B
:10BB7000002806D033462246059903F0BBF805009D
:10BB8000CED10298007B002807D0334622463846A3
:10BB9000059903F02BFF0500C2D13878002807D0A3
:10BBA000334622463846059903F0D8F80500B7D148
:10BBB000284655E710B598B0382101A8FFF741FB9A
:10BBC000022168460171012484710621C1718482B9
:10BBD0000C48069024210FA8FFF733FB10A804722D
:10BBE00009480A4B008813900020149001460090E9
:10BBF0000FAA01A800F088F9002801D000F052F83F
:10BC000018B010BD962000200C21002099F00100F2
:10BC10003EB504460420019016480290694620462D
:10BC200001F076FC002805D01349884201D000F0CD
:10BC300039F83EBD0F482038018CC90714D00F4A8F
:10BC40000C21808AA7DF00280ED00D4988420BD036
:10BC5000082809D0891C884206D0112804D0094937
:10BC6000884201D000F01EF8204601F007FC0028B1
:10BC7000DDD13EBDA020002040800000FFFF00007D
:10BC80000230000001340000BFF34F8F0449034825
:10BC9000C860BFF34F8F00BFFDE700000400FA0546
:10BCA00000ED00E00EB50021029000916A4601917E
:10BCB0000148FFF7E9FF0EBD01400000014B1B6882
:10BCC000184700000860002038B50C46A2680C2315
:10BCD0005A43064B09789D58054A126A009202465B
:10BCE000204608302369A84738BD0000EC620020D8
:10BCF0003821002010B5064914230A785A435118F8
:10BD0000091DFFF7E1FF042003F01EFF10BD000036
:10BD100090600020094B9B68002B07D0002A07D0B9
:10BD2000002805D00068037C002B03D00820704752
:10BD30000720704741744261002070475C21002059
:10BD4000FFB59007002581B014460E46002832D179
:10BD50001B4F002C31D003F0AFFD04987861032015
:10BD6000387033461821224600204B43BC601834FB
:10BD7000C10089180D704D708E704C601C19401CEC
:10BD80000328F5DBFD607D7001240E48BD7024059D
:10BD9000046003211420FFF72BFD0B4804600B4CBB
:10BDA0000198A06003211120FFF722FD606838612F
:10BDB000002005B0F0BD0720FBE7BD60FBE70000F9
:10BDC0005C21002080E200E000E100E0001501407D
:10BDD000FEB50D461B4917468968044600292AD03E
:10BDE000002C28D0052D01D20720FEBD6069002857
:10BDF00021D0607C012820D0002604F07DFBC0000B
:10BE00001049019089684018694604F09FFB00289A
:10BE100015D0012101700C49446049680830E2C026
:10BE2000084901988968411868460078487004F00C
:10BE300047F80020FEBD0820FEBD2E46DDE70420A9
:10BE4000FEBD00005C21002000150140F8B5134D37
:10BE50000446A96800291CD0002C1AD0606900286B
:10BE600017D00026267404F047FBC700A86869466F
:10BE7000381804F06BFB00280DD0022101704460DB
:10BE8000A868391868460078487004F019F83046F8
:10BE9000F8BD0820F8BD0420F8BD00005C2100209A
:10BEA000F0B50C4693B01F216A4611800726002783
:10BEB0009180002809D0C17849070DD502A9FFF764
:10BEC0006EFD002809D102AD01E000251780002C8D
:10BED0000ED0E078002802D0304613B0F0BD01AAA1
:10BEE0000AA92046FFF75BFD0028F6D10AAA02E066
:10BEF00068460022878068468088C3B2684600880A
:10BF0000C1B2284672DFE8E770B50D4604991646BF
:10BF1000040042D0002E40D0424800224271C3604B
:10BF20000161242231464048FFF764F900F0CEF861
:10BF30003D49343108461038016020318160382194
:10BF40005C38FFF77EF93848217838380170A178DD
:10BF50008170E178C17061784170626921694261E4
:10BF60000161E268A168C26081600146E369A2697B
:10BF7000CB618A61616A002919D00146AC31024661
:10BF8000B83241628A60636A1B880B80616A436AC7
:10BF9000898899800021436A06E00E2070BD666A98
:10BFA000B668765C5654491C9E888E42F7D8A16AC2
:10BFB00000291CD01C4AAC3211460C398A608162BF
:10BFC000A36A9B888B80A16A836A098819800021F3
:10BFD000836A04E0A66AB668765C5654491C9E885B
:10BFE0008E42F7D82C210A5D0F4918390A73216A4D
:10BFF000002909D00B4914310162226A52884A8013
:10C00000216A026A098811806168002904D0054903
:10C01000891D416061684160034829463838FFF74F
:10C020003FFF70BDC8200020D45D002010B50288FD
:10C03000194C102A17D00021112A1AD01B2A11D10D
:10C04000007A00280ED16079012814D0022819D076
:10C0500003281DD0042805D12171E2680846002A72
:10C0600000D0904710BD817D0129FBD180882081BF
:10C0700010BD617010BD022005E021690029F9D0D2
:10C08000884710BD032000F029F80028F5D110BD25
:10C09000032020710420F6E7C820002010B50228F4
:10C0A00001D003280ED1084C207800280AD00020A7
:10C0B0002070607900F012F8002803D0216900296F
:10C0C00000D0884710BD0000C820002010B507210F
:10C0D0000148FFF7B6F810BDE0200020F0B5784C1D
:10C0E00087B06071002606A8069603F077F901274D
:10C0F000082802D0002808D104E006A801F074FF47
:10C10000002804D10698002801D02770D4E0FFF75A
:10C11000DDFF6C4D6878002802D06079012807D0D7
:10C12000A87800280CD06079012801D0022824D1F9
:10C13000E168002903D0E7700820884700E0E67036
:10C140006079012808D16878002809D05C48193046
:10C1500003F018F9002803D06079022802D00CE01F
:10C1600002206071A878002805D05548193003F0E6
:10C1700009F9002801D103206071287B002804D12F
:10C180006079032801D104206071287E002804D141
:10C190006079042801D166712671E16800290AD00E
:10C1A0006079032801D0042805D12878002802D01E
:10C1B0006078002817D0A67018216846FFF741F86C
:10C1C00068460670019606720396607901280ED0C3
:10C1D000022815D03B4E243637465C3F03281BD03F
:10C1E00004285DD13AE0A77007208847E4E7344887
:10C1F000183001906846077046820682277152E027
:10C200002F48183001906846077029894182A98813
:10C2100001820220207146E0A88A69464882288A65
:10C2200008822848243004F013FA002805D0287822
:10C23000002802D06078002801D003202FE00220DF
:10C240006946087204200396F8701E4800213838A9
:10C25000FFF726FE002830D1052020E0A88B694694
:10C260000882288C48821748243004F0F1F900280D
:10C2700005D02878002802D06078002801D004205A
:10C280000DE002206946087204200396F8700D48FC
:10C2900000213838FFF704FE00280ED10620207157
:10C2A0006079002803D0684673DF002805D1E16873
:10C2B000002901D020798847002007B0F0BD000098
:10C2C000C8200020D45D002070B5054601461C2220
:10C2D0000E48FEF78FFF0E4C0026267029680029B5
:10C2E00006D00822201DFEF785FF201D7ADF02E020
:10C2F0000748001D7BDF002807D1401E6080667064
:10C30000044A00210448FFF705FD70BDC05E00200F
:10C31000E820002095040200C4060200F8B5214C74
:10C32000028800271E4DE689102A15D01E49112AC1
:10C3300021D0122A2DD0502A1CD1C288801DB24291
:10C3400018D14289022A15D1427B037B100218437F
:10C35000C007C00F0CD112E08188698001461048E7
:10C36000082218310C30FEF745FF6F70002E01D106
:10C3700000F0A4FDF8BD0020C04368806F7008681D
:10C38000FFF764FD0028F5D0A1690029F2D08847A5
:10C39000F8BD0822811802480C30FEF72BFFE7E7B2
:10C3A000E8200020C05E0020C406020010B502484C
:10C3B0000068FFF74BFD10BDC40602007CB50546C2
:10C3C00008880C460930904201D90C207CBD684693
:10C3D00071DF0028FAD121880820685420881B21A9
:10C3E000401C80B220802954208800A9401C80B2C3
:10C3F0002080401906220131FEF7FCFE20886946A4
:10C40000801D80B220800978002900D001212954A4
:10C410002088401C208000207CBD000030B585B005
:10C420000D46040039D0002D37D06868002834D07C
:10C430000020C0431A4B20800FCB049301AB07C3ED
:10C4400018486946088001A8811E63DF002822D1B0
:10C45000221D69460120A0DF00281CD16846807893
:10C46000A071204600F080FF002814D1204600F083
:10C4700037FF00280FD12946204600F0B7FF0028DB
:10C4800009D16868A062A868002800D0E062064967
:10C4900001200870002005B030BD0E20FBE7000031
:10C4A000C806020030150000FC2000203EB5002820
:10C4B00028D0002926D0826A002A23D00A88102A90
:10C4C00021D0112A30D0502A1FD0512A1AD10A4621
:10C4D0000446891D0878022814D14888238A984286
:10C4E00010D1907B04280DD006280BD0052809D048
:10C4F0002046891C02F052FE002803D0E16A002980
:10C5000000D088473EBD898810E0CB8802899342DD
:10C51000F8D108226B461A700A7C1A721231019106
:10C52000826A694690473EBD0021C94301803EBDF5
:10C5300030B585B0002822D00388134CA34220D008
:10C54000124B1B78002B1CD0104B10255B1C1D7050
:10C550005970002401259A70032269460A820094CA
:10C56000019402940394028A0A808D708C8004A93D
:10C570000291039300886946A6DF05B030BD0E2006
:10C58000FBE70820F9E70000FFFF0000FC20002087
:10C5900010B5044601F0A0F82146094800F05AF809
:10C5A0002046FFF7BBFE064821465030FFF77EFFCE
:10C5B000204602F081FD2046FFF738FD10BD000047
:10C5C000905C002007B5028C0A4B84B09A420ED0D2
:10C5D00003896A461380012393700023938006AA7F
:10C5E00003910292008C6946A6DF07B000BD0820C7
:10C5F000FBE70000FFFF000038B504460868206034
:10C60000087960710020C0430D462084002022215B
:10C6100008554C2108530121684681700C4901805E
:10C62000A21D69460120A0DF00280FD1294620461F
:10C6300002F016F8002809D1A868002805D029467C
:10C64000204600F05DF8002800D1002038BD000031
:10C650000D18000010B50A88102A06D0112A06D03D
:10C66000502A01D102F012FE10BD898801E000219C
:10C67000C943018410BD000000B51C4887B0406864
:10C680000590002348221A4905A803F0ADFA0028B6
:10C6900001D0FFF707FB6A460121002003F08CFA66
:10C6A000002801D0FFF7FEFA0120694608731148FF
:10C6B00003F04EF9002801D0FFF7F4FA684603F0C2
:10C6C00071FA002801D0FFF7EDFA0B4803F060FA89
:10C6D000002801D0FFF7E6FA084803F09FFA002887
:10C6E00001D0FFF7DFFA07B000BD000060060200CE
:10C6F0003C5C0020E81F002091C5010011FE0100F4
:10C70000F0B58FB00D4606461C216846FEF799FD30
:10C7100068460178022001436846017000240194B4
:10C72000039404940594012708A80694877015497A
:10C73000684601840794E97B0177297C4177807FF3
:10C74000F9210840F721801C0840EF2108404108EA
:10C75000490068468177142109A8FEF772FD08A8F0
:10C76000099007A80A9068468785C4850786A86847
:10C770000D903346F088103309AA6946A2DF0FB046
:10C78000F0BD0000382A00001CB5044681786A46D6
:10C790000C4802F037FE002812D160781C21484373
:10C7A00009491C2340181A46694602F0F1FE064862
:10C7B00006494C30807A80000A58214668469047E6
:10C7C0001CBD000030210020BC5F0020EC060200F0
:10C7D000F8B5054608206946088001236A461A49CB
:10C7E0002846AADF194800688047B12044DF0028A6
:10C7F00001D0FFF757FA11DF002801D0FFF752FAF6
:10C80000134C606913DF002801D0FFF74BFA28466C
:10C8100000F010FD01210F4A880510600E480268E3
:10C820000D4B002080330D468540154204D0C606CE
:10C83000F60E0D46B5401D60401C2028F3D36069FC
:10C8400000F00CF8F8BD0000606300207C2100209F
:10C850000010001080E200E000E100E010B5FEF7FB
:10C8600069FC10BD10B5032000F060F9002801D06C
:10C87000062800D1002010BDF8B507460024234843
:10C8800002E0641C042C1AD2A2008258BA42F8D1E9
:10C89000042C14D21D481E4E0C38002929D0012921
:10C8A0000ED002290BD16000201880194578002D88
:10C8B00005D018480169002901D028468847F8BDED
:10C8C00061006118755C8E19717800290CD01149CE
:10C8D0000A224968806851430E4A521CFFF778FAD1
:10C8E000002801D10B4847700A48B178143001552F
:10C8F000DDE78068FFF7AAFA064861006118143086
:10C900008919005D8D78A842D1D0F8BD9406020047
:10C91000705D0020B020002010B5054A0146127A53
:10C920000020D20702D0084600F004F810BD000035
:10C93000B0200020FEB57A4D0722EB6892059A439D
:10C9400002936B6800939C0006461B19002001218E
:10C95000019349050746734C3300FFF704F8180D9F
:10C960001515374755677C887F8891DE9E9E9E9E71
:10C970009EC8CED1D8DEDE140F21029A490591431C
:10C98000A160E7602F70FEBDA260E76060680F22C3
:10C9900052055040800209D5A160E760022E02D105
:10C9A000E120C0000AE07D20400107E0E160A760CF
:10C9B000022E01D1C82001E0FF2091302E706421A9
:10C9C000FEF7EEFB0099414300223FE0A260E760E2
:10C9D00060680F2252055040800204D5A160E760D4
:10C9E00019204001EAE7E160A760E3E7A260E760A1
:10C9F00060680F2252055040800202D5A160E760B6
:10CA0000D1E7E160A760D7E7A260E76060680F2226
:10CA100052055040800202D5A160E76001E0E1606C
:10CA2000A7602E700098410000220FE0A260E7602E
:10CA300060680F2252055040800202D5A160E76075
:10CA400001E0E160A7602E7000990022364800687E
:10CA5000FFF7BEF9FEBDA260E7601BE06168012040
:10CA6000800502468A43A2600140E16010E06068F0
:10CA7000012189050A468243A2600840E060E3E79D
:10CA80006068012189050A468243A2600840E0608F
:10CA90000199C9E7E160A7602DE023484068FFF7EE
:10CAA000D5F911218A1B01D0002807D00F22E9688F
:10CAB00052051140A160E760EF60FEBD0121C9058C
:10CAC000E960012A0CD91046C82148436421FEF7C9
:10CAD00067FB69680022414313484068FFF778F913
:10CAE0000F22E96852051140E160A760FEBD0F21E9
:10CAF0004905A160E7602E70FEBD07229205AAE7F6
:10CB00000D214905A160E76001218905C2E70321E4
:10CB1000C905A160E7608910BCE70F214905B9E7A5
:10CB2000B02000200005005088060200F0B500216A
:10CB30000B4C0C4D03273F048A00A2589200561953
:10CB4000326801238B40034000D00323BA431B0407
:10CB500013433360491C0429EED30020F0BD0000CC
:10CB600094060200000700500249091820200856C8
:10CB7000704700002C600020F8B53E481422017870
:10CB800051430C18E0680C2148433B492769401881
:10CB9000058941890091241D466802F0C5FC0146C3
:10CBA0003846FEF7FDFA002932D000200099A2880D
:10CBB0004D436188AE198918CD1900222F490028EC
:10CBC0000A6109D002F0B0FC6188884222D0B542E7
:10CBD00002D1A08800281DD0A06803281AD002F036
:10CBE000A3FCA188CA1901461046FEF7D9FA234CC6
:10CBF0008808E06002F098FC01462846FEF7D0FA6B
:10CC0000002911D00020B5422FD000280ED02CE0F2
:10CC10000120CBE702F088FC01463846FEF7C0FA57
:10CC200016494861032021E00120ECE7ADB2B7B21C
:10CC300002F07AFC01463846FEF7B2FA064602F0E8
:10CC400073FC01462846FEF7ABFA864201D1781BF9
:10CC500009E002F069FC064602F066FC014628463F
:10CC6000FEF79EFA701A80082061022002F06CFF25
:10CC7000F8BD000090600020EC6200203821002008
:10CC800010B5074814220178514308180079042888
:10CC900002D000F059F810BD012002F055FF10BD80
:10CCA0009060002010B50B481422017851430818F9
:10CCB000094AC18811620079012806D0032801D0F1
:10CCC000042801D1FFF758FF10BD012002F03CFFFE
:10CCD00010BD000090600020382100201422504335
:10CCE000054A002180180171C18002220161C260E1
:10CCF000416101817047000090600020F8B5104C40
:10CD0000069E65781E2D19D027787D191E2D00D31B
:10CD10001E3D14277D432D1928716A6103C92961BD
:10CD2000E860EB802E816078401C607005480078D8
:10CD3000002801D1FFF7B6FF0020F8BD0420F8BDA0
:10CD4000906000203821002010B50D4C142120786F
:10CD5000484301190020091DFEF7B6FF2078FFF7B0
:10CD6000BDFF6078401E60702078401CC0B220700B
:10CD70001E2801D100202070002002F0E5FE10BD29
:10CD800090600020F8B52348C16800293ED00E68A5
:10CD900021494C680769C078E11B0D022D0AED1C82
:10CDA000002814D101201D4A000450601B4A403A5B
:10CDB00050601B49400008601A4908601A49012068
:10CDC00008602F20FEF7A6F912490120C870B5426D
:10CDD00000D23546E81900020F4B000A40331860B4
:10CDE0000D4A5168001B091B0902090A0002000ACA
:10CDF000C91C814209D9506818602F20FEF78AF9B2
:10CE000001200749400480390860F8BD02F054FD54
:10CE1000F8BD00005C2100200015014040130140D6
:10CE200080E200E000E100E000100140F8B50646B5
:10CE3000108814468446801D0D46984201D90C2066
:10CE4000F8BD32880720062AFAD31927FF01184BAC
:10CE5000BA4201D99A42F3D171880629F0D3B94276
:10CE600001D99942ECD19A4203D0994201D08A4229
:10CE7000E6D805216046295420881221401C80B242
:10CE8000208029542088401C80B22080411930889D
:10CE900003F0F0FA2188401880B220804119708890
:10CEA00003F0E8FA2188401820800020F8BD000037
:10CEB000FFFF000010B5FEF7F5FE10BDF8B51648EF
:10CEC00001F0FCFC144D00260C3D144C002807D04A
:10CED000616900291CD001206A461070684616E07E
:10CEE0002878002805D06169002911D068460670AD
:10CEF0000DE0687800280DD0A1680948002200687C
:10CF0000FEF766FF002803D0A169002900D08847FA
:10CF10002E70F8BD6168F0E7F4200020C05E0020AC
:10CF2000C406020070B5094B04469E7A082000250D
:10CF30000E4207D00648844202D01889A04202D18E
:10CF40000020156070BD052070BD0000FC5F002052
:10CF5000FFFF00000C214843064910B5012240188C
:10CF60008272911E0181FF21C1720721FEF769F9CA
:10CF700010BD0000FC5F002010B5134C20790007A5
:10CF80001FD46069401C6061E068002801D0042063
:10CF900004E001F0C5FC002803D0022002F02EFFBF
:10CFA00010BD2069002809D06068C10701D00320A6
:10CFB000F4E70121084360600020EFE7FFF760FE1F
:10CFC00010BD02F00FFF10BD3821002010B5084839
:10CFD00041680A0708D48A0702D50122114341603B
:10CFE000022002F00BFF10BD02F0FCFE10BD00009D
:10CFF00038210020FEB50E46044681786A46234853
:10D0000002F000FA002826D160780C21204F484316
:10D01000C019807A40061FD4022E1DD0012E1DD0CB
:10D020001C4DA0781C2148431B49002341181C2299
:10D030006846A847002813D0022E0CD020780C2177
:10D04000484313490C314018807A144980000A582B
:10D05000214668469047FEBD114DE2E7114DE0E7DD
:10D06000022EF8D060780C214843C019817ABF2283
:10D070001140817260781C214843054940394118AC
:10D080001C231A466846A847D8E700003021002034
:10D09000FC5F002069FD0100F85E0020DC06020054
:10D0A000D9F70100F9F6010070B50546114A12489A
:10D0B00000241C2363431B189B7EFF2B04D0641C9D
:10D0C000072CF6D3104670BD0A78022A09D01C221C
:10D0D00062431018FD22827607221030FEF78AF88C
:10D0E00004E01C2161430818FE2181762C70002287
:10D0F000E8E7000043800000F85E0020F7B5052552
:10D100000F4F06460024002E0AD01C206043C01991
:10D11000072231461030FEF7A6F8002807D00AE0B3
:10D120001C206043C019018B0298814203D10198F1
:10D130000025046002E0641C072CE4D32846FEBDF1
:10D14000F85E00207CB5054681B26A46074802F0C9
:10D1500059F9040008D17421684602F07FF90400EF
:10D1600002D1284602F01AF920467CBD3021002069
:10D1700070B505460C46100001D0FEF793FD2078EF
:10D18000152802D12846FEF743FD002070BD00009F
:10D190001FB56946087302F0CDF9002801D0FEF7EB
:10D1A00081FD03A800F006FD002801D0FEF77AFDFE
:10D1B00001A805210130FEF744F8694649790120AC
:10D1C00001438122114030314A06520E69464A71AC
:10D1D00007228A711022CA710549009169460871B7
:10D1E000044800F04DFE002801D0FEF75BFD1FBD96
:10D1F00071D101008A20002001B50449684600F081
:10D200004BFA002801D0FEF74DFD08BD802100201B
:10D2100010B50978002908D003220121FFF788F909
:10D22000002801D0FEF73EFD10BD0088FFF7D0FAC0
:10D2300010BD000010B58AB000242349009400F00E
:10D2400087FC002813D101A91F4800F029FC002801
:10D250000FD01E491C4800F00FFD002801D0FEF73A
:10D2600021FD1A4800DF002801D0FEF71BFD0AB09F
:10D2700010BD0599072215481031FDF7BBFF134873
:10D280001022C01D0599FDF7B5FF10481122183076
:10D290000199FDF7AFFF0D4801990A222A3012319A
:10D2A000FDF7A8FF094800DF002801D0FEF7FAFCCF
:10D2B00001200090042008906846099007A907946F
:10D2C000014800F07FF9CEE7802100202C63002088
:10D2D0007047000001490860704700007C21002071
:10D2E00030B58FB005461C216846FDF7AAFF694698
:10D2F000087808210843102210436946087000246A
:10D3000001940394049405940694A87908A988705C
:10D31000144869460884601C00070794000F0C77C6
:10D3200010304877887FF9210840F721801C084099
:10D3300010430121084369468877142109A8FDF7A5
:10D3400080FF08A8099007A80A9069468C851720D5
:10D35000CC8508860D942B46A888103309AAA2DF35
:10D360000FB030BD3115000030B58FB005461C211F
:10D370006846FDF766FF6946087804210843694658
:10D380000870002401940394049405940694A879E9
:10D3900008A98870144869460884601C000707942F
:10D3A000000F0C77103048778A7FF9200240F72071
:10D3B000921C0240EF200240012002438A77142190
:10D3C00009A8FDF73EFF08A8099007A80A9069463A
:10D3D0008C851420CC8508860D942B46A8880833AC
:10D3E00009AAA2DF0FB030BD32150000F0B58FB032
:10D3F0000F4605461C216846FDF723FF6846017865
:10D40000022631430170002401940394049405948E
:10D410000694A97908A88170174968460184601CA0
:10D420000107090F68461031079401770020014673
:10D4300068464177817FF9200140F720891C01402F
:10D44000EF2001400120014368468177142109A89B
:10D45000FDF7F7FE08A8099007A80A906846868598
:10D46000C48506860D972B46A888203309AA6946ED
:10D47000A2DF0FB0F0BD0000341500003EB5044639
:10D480001E4801781E48002930D0002C2FD021786A
:10D4900000292BD11B4900250968002926D0A17835
:10D4A000072927D21C20184A48438018807EFF286D
:10D4B00020D012486A46103001F0A4FF002815D190
:10D4C00060230422694602A802F062F80299491C0E
:10D4D0000CD0602304220D49684602F07DF9002833
:10D4E00004D1A178084A89001C3A55503EBD044831
:10D4F000801D3EBD024808303EBD000020210020B6
:10D500000880000008600020F85E0020D8060200B5
:10D510003EB50C4627490A782749002A30D08A1D93
:10D52000002805D0002C03D00278002A28D101E081
:10D5300010463EBD214A1268002A21D08178072971
:10D5400020D21C221E4B4A43D218927EFF2A19D0A9
:10D550001B4AA3681C3A002B17D0890053508178CE
:10D5600014486A46103001F04DFF0028E1D16023D5
:10D570000422694602A802F00BF8002809D016E040
:10D5800008463EBD0C4808303EBD89005158A16098
:10D59000E5E70298401C0AD0642310226946A0687F
:10D5A00001F0F6FF0028EFD1029961603EBD02480C
:10D5B00038303EBD20210020088000000860002097
:10D5C000F85E0020FEB505462D480C4601782D4832
:10D5D000002925D0811D002D23D0002C21D0A26848
:10D5E000002A1ED0297800291AD127490968002964
:10D5F00016D0A978072916D21C22244B4A43D218E8
:10D60000927EFF2A0FD06A780C235A431E4B0C3BA4
:10D61000D218927A120703D56068042806D2072030
:10D62000FEBD0846FEBD17480830FEBD1448184E22
:10D630006A46103001F0E6FE0028F6D1602304228D
:10D64000694602A801F0A4FF002803D10298401CFB
:10D6500000D0104E60230422211D6846B0470028E8
:10D66000E3D1642310226846A16802F0B5F80028CF
:10D67000DBD1AA78054B92001C3BA1689950FEBDF6
:10D68000202100200880000008600020F85E0020B3
:10D69000F9F60100D9F701000C4A13780C4A002B67
:10D6A00011D0931D002905D0002803D00078002850
:10D6B00009D101E018467047064B1B68002B02D0C9
:10D6C000087000207047104670470000202100209D
:10D6D0000880000008600020F0B591B00546FF24E6
:10D6E000002007940290E9480078002849D0E84FCC
:10D6F0003868002845D001A800F04EFA002801D073
:10D70000FEF7D0FA281D05902C2069460883FF20DB
:10D71000002688710E710396DD4C28880C3C102879
:10D720000ED0A88803AA0221FFF7FCFB002807D12E
:10D7300003980C2141430919CA7A69468A714871D4
:10D740002A881320192A7DD00FDC102A1BD0112A19
:10D7500055D0132A77D0142A13D103980C214843AB
:10D760000019C07AFF286FD0A1E0CA491A2A6CD0EC
:10D770001E2A65D0522A04D1B87A8000095801A81F
:10D78000884711B0F0BDC44F03AA01213846FFF706
:10D79000C9FB0028F5D103990C2048430222001947
:10D7A000827211236A4613745171A9880181294636
:10D7B000083107220091FDF71DFDE87DC10707D064
:10D7C0004108B2480830405CFF2808D0079006E0C6
:10D7D0003A4607A90098FFF791FC002837D1039932
:10D7E0000C22514309190798C8728A7A08231A43F0
:10D7F0008A726946887101A8FEF7C6FF27E0039880
:10D800000C2148430119887AFD22104088720107D3
:10D8100006D5C0090DD0002101A8FFF7EBFB08E0F9
:10D8200068468079FF2804D001F0B8FDFF206946E2
:10D83000887103980C225043102100198172122024
:10D84000694603E08BE043E014E0E4E0087432460C
:10D8500004A901A8FEF732FA6846007C122890D18C
:10D8600003980C2141430919897A012989D0FFF7CE
:10D8700071FB86E72A8A07A90020FFF73FFC0028F2
:10D880000ED103990C22514309190798C8728A7A5C
:10D8900008231A438A726946887101A8FEF774FF4B
:10D8A00003980C2148430019C07AFF2806D003983A
:10D8B0001C21484376494C394018029003981C219A
:10D8C000484376494218A8880023029986DF58E722
:10D8D0006946087403980C2148430119887A042288
:10D8E00010438872CA7AFF2A0BD0402210438872F4
:10D8F0001620694608740023A8881A4685217FDF10
:10D9000021E007A8FFF7D0FB00281FD00646002023
:10D910000D9003990C224A431219D27A1C235A43C0
:10D920005E4B0F90D2180E921C2251431A46C432FD
:10D930008918109009910A900B900C903A1DA888B4
:10D9400009AB00217FDF002893D180E76946079863
:10D95000887103990C2251430919C872D7E7787A64
:10D960000C2140084000787203986F4602464843F5
:10D97000011984468B7AFB2003408B721420387483
:10D98000287A002806D05806DFD4C87AFFF7DAFBD9
:10D990002E7A5CE7687A4007D7D5B879FF28D4D0CB
:10D9A00008273B438B726B7B9B0708D51C250346DE
:10D9B0006B433A4D5B199D7E6D086D009D76CB7A69
:10D9C000FF2BC2D06346E35C022B10D01C225043D5
:10D9D000324D072240191030FDF70CFC6846807963
:10D9E0001C2148434019817EFD2211400DE01C217D
:10D9F0004A4327494C3951184A8A1C214843274930
:10DA000040180283817E490849008176012101A8DE
:10DA1000FFF7F0FA1BE7287A0209012A23D1000751
:10DA2000000F01281FD103980C2242431219927A49
:10DA3000120718D5242148431549303940181A21B6
:10DA40000830FDF7FEFB16206946087403980C2188
:10DA500048430119887A602210438872787A02213B
:10DA6000084378720FE003980C2250430019827A21
:10DA700080231A43827215206A461074B87A800097
:10DA8000095801A888470026E1E60000202100206F
:10DA900008600020FC060200FFFF0000F85E002086
:10DAA000F0B5064626480C460178264889B000297C
:10DAB0003FD0811D002E3ED0002C3CD03178002973
:10DAC00037D1214900250968002932D0B0780728CC
:10DAD00033D21C211D4F4843C019807EFF282CD013
:10DAE000E560B07865614843C01920611648A560BB
:10DAF0000C306060684620601148B17807AA103089
:10DB000001F080FC002814D11C231A4607A968469E
:10DB100001F03EFD00280CD1E560B1781C22514394
:10DB2000C919656121610849A5600C3161606946C8
:10DB3000216009B0F0BD0846FBE702480830F8E76D
:10DB4000202100200880000008600020F85E0020EE
:10DB500030B50446002903D00878002814D101E02C
:10DB60000B4830BD0B480023006800280CD0094A40
:10DB7000FF2088700C3A15890520A542F1D14B7021
:10DB8000D07A8870002030BD0148801F30BD000071
:10DB90000E80000008600020002806D0FF210170E0
:10DBA00041708170C17000207047014870470000CB
:10DBB0000E800000F0B585B0040036D0294800255D
:10DBC0000560457285722846FFF7C4F9254824216F
:10DBD0003038FDF736FB0026FF27304601F0DEFB2C
:10DBE00021488755761C072EF7D37421684681801B
:10DBF0000721C1801D481C4900900831684601F08A
:10DC00001DFD00280FD1184E0120083E30702078ED
:10DC100000280CD069468888C988484381B23046BC
:10DC2000103001F01BFC05B0F0BD1148FBE7114FAF
:10DC300000240D48A1B202AA083001F0E3FB00283D
:10DC400009D11C206043C01900231C2202A901F045
:10DC50009FFC002801D03570E5E7641C072CE8D351
:10DC6000E1E700000860002028210020F9DC010025
:10DC70000E800000F85E00200B4610B51A491B4AC2
:10DC80000978002920D0911D002805D0002B03D051
:10DC90000178002918D101E0084610BD144909682F
:10DCA000002911D0114A8178D21EFF290ED01C20E4
:10DCB000414310480918887E800705D4072218467A
:10DCC0001031FDF797FA0022104610BD4078FF286A
:10DCD000FAD00C21484306490C394118887A80074C
:10DCE000F2D507221846ECE720210020088000002A
:10DCF00008600020F85E0020FFB55C4891B0006825
:10DD00001A9F1E46002873D0742F71D86846FFF7FB
:10DD100043FF002801D0FDF7C5FF002468460470CA
:10DD20000471254605970696A9B20FAA504801F03E
:10DD300069FB002806D108220FA91198FDF793FA74
:10DD4000002817D06D1C072DEED368468578FF2D6F
:10DD50004ED01298032810D046481C21301AFDF7E7
:10DD60001FFA012707281ED204A802901398002842
:10DD70000BD011E068468570E7E7742F03D0402090
:10DD8000694608716BE02020FAE738463849A84018
:10DD900010394968084260D0284602F071FB202003
:10DDA0006946087149E031481C214C38301AFDF7AA
:10DDB000F7F900281DD02D4824213038301AFDF7FE
:10DDC000EFF901002C482BD040216A4611712B49F4
:10DDD0008E4244D0274AA9001C3A5158B1423CD146
:10DDE00004A90291C07A854227D16846447024E094
:10DDF00033E004A802902020694608714C701B494A
:10DE00000B940C310C9158390791694689781C2282
:10DE10005143184A05908918089107A906910CE00A
:10DE2000302269460A714C70CF70807A800704D422
:10DE3000114824212438FDF704FA12986946022873
:10DE4000087910D0022108436946087104A802909D
:10DE500001A96846139AFDF731FF15B0F0BD694678
:10DE600008790321EFE73843EFE70000086000205E
:10DE700030210020F85E0020FC5F0020D806020060
:10DE800070B5064618480D46007800280ED0174990
:10DE9000002E0ED0002D0CD02868002809D0144C7C
:10DEA0002168002907D011480A3870BD0F48801F2B
:10DEB00070BD084670BD20600522691D201DFDF75C
:10DEC00099F92879A072207A02214008400008437D
:10DED000FB2210402072E0790123184308431040D0
:10DEE000E0710020307070BD202100200E80000005
:10DEF0000860002010B50E4900234A788C78A242B1
:10DF000012D0521CD2B24A70022A00D14B704A7809
:10DF1000074B920018339A580260086910180002E3
:10DF2000000A0861012010BD0360002010BD000040
:10DF30005C21002010B5002803D0112802D0FDF785
:10DF4000D9FE10BD0248082241681143416010BD4E
:10DF50003821002010B51C4C21782046406801294A
:10DF600006D0022929D0032912D1000717D513E0C2
:10DF7000000711D415481422017851430818C188AC
:10DF8000A28B891A0904090CC18002D001F0EEFEAF
:10DF900010BDFEF7D9FE10BD00F0A0FE10BD6069F7
:10DFA000401C606100F0BCFC002803D0207801F028
:10DFB000CBFD10BDFEF764FE10BD60780449800003
:10DFC0000858804710BD00003821002090600020D4
:10DFD0002007020010B528DFFFF7ACFF10BD10B519
:10DFE00029DFFFF7A7FF10BD002804D00349496DC2
:10DFF0000160002070470320704700006863002024
:10E000000EB56946112008721248FDF725F982B253
:10E01000104902A87CDF002801D0FDF743FE0D2047
:10E02000800178DF002801D0FDF73CFE0020009041
:10E030002822694601900A8050224A808880FF2069
:10E040009130C88068467ADF002801D0FDF72AFEAB
:10E050000EBD0000182100200020704700207047EE
:10E0600000207047F8B506464078242104464C430A
:10E0700024490C2250436118224A00254B6824325F
:10E080008018AE462F469C46002B0CD0827A134651
:10E09000D20908D05A0606D40D461A4A614689B2FA
:10E0A000175908358E46174C008924343B46724672
:10E0B0002946A9DF0B2819D0002800D01248012FCB
:10E0C00013D170780C214843001900890F4AA7DF4B
:10E0D00000280AD00E49884212D0082810D0891C86
:10E0E00088420DD011280BD00020F8BD70780C218B
:10E0F000484301230019008972462946A9DFE0E759
:10E100000148F8BDD85F002041800000FFFF0000FB
:10E110000230000070B50C46014660782422084D9C
:10E1200050434019382301F033FA002807D16178B1
:10E130002422514349194A68521C00D14A6070BDDB
:10E14000D85F0020F3B589B00D461A206946888350
:10E1500068780C2103274843224E3B4680190089EA
:10E1600007AA6946AADF002838D1687824214843E5
:10E17000741A001969468A8B0830FDF774F8002874
:10E18000687807D0242148430119496800290DD037
:10E19000154E0CE00C2141438919897A89071DD459
:10E1A000242148430019FDF74CF817E00F4E275083
:10E1B0006846828B68782421484300194260687859
:10E1C0004843001969460830FDF714F8687824219F
:10E1D00048430119382324220998B04700200BB086
:10E1E000F0BD0000FC5F0020D9F70100F9F6010046
:10E1F00010B5FFF737FF10BD10B5FFF78BFF10BD4F
:10E2000010B5FFF79FFF10BD70B51B4C20790007BC
:10E210002ED41A481422017851430D182E6901F0AA
:10E2200083F90146E8882A89761E80188019FCF750
:10E23000B7FF21690025002909D06169814206D113
:10E24000E560606801210843606000200AE000F09A
:10E2500067FB002802D00220E56003E02069002867
:10E2600003D0032001F0CAFD70BDFEF709FD70BDAB
:10E2700001F0B8FD70BD0000382100209060002042
:10E28000F0B595B00024019402940394052108A8E8
:10E2900004940173E4A000680E90E4A000680F905D
:10E2A000162108A8017417210175E1480168491C6D
:10E2B0000160E04DA889401C81B2A981DE48AA789E
:10E2C0000088002A06D12A79002A03D0814200D989
:10E2D000AC812C71A9890127814200D12F70814224
:10E2E0000ED9D6A000680590AF70E8890223401CC3
:10E2F000E881D04805AA57212430009400F048FE58
:10E300002878CF4E002848D00D2000F089FE052047
:10E3100000F07AFD0120CB4940038860052000F021
:10E3200073FD304608300FC8139310AB07C3C148C4
:10E3300000231A4610A9243000F0D4FD002801D093
:10E34000FDF7B0FCBB48243000F0BCFD052000F018
:10E350005BFD2C70B9A000680590BBA0006806901A
:10E36000BAA000680790B348022305AA5721009479
:10E37000243000F00DFEAF48022306AA57212430B6
:10E38000009400F005FEAB48022307AA5721243071
:10E39000009400F0FDFDFDF7B7F9E8890A2802D9DD
:10E3A0006F70AC81EC816878002834D0A8A0006838
:10E3B00005906C709F4802230EAA572124300094C8
:10E3C00000F0E6FD9B48022305AA182124300094A2
:10E3D00000F0DEFD18360FCE06AE0FC6954806A932
:10E3E000243000F0E7FD072000F01AFE1E2000F0A8
:10E3F00017FE944E8020F060C005F0600A2000F007
:10E4000003FDAC700D2000F00BFE01204003F06016
:10E41000052000F0F9FC8748807800287ED08548E8
:10E4200002230FAA57212430009400F0B1FD814847
:10E4300001230BAA57212430009400F0A9FD7D4848
:10E440000423844A5721243000F090FD79480123A9
:10E450000CAA57212430009400F09AFD7D4E754897
:10E460000123321D5721243000F080FD7148012323
:10E470000DAA57212430009400F08AFD6D48012335
:10E48000721D5721243000F071FD308840BA400AD7
:10E490001190708840BA400A10907079FCF7B8FF6C
:10E4A0000322D243FCF79EFF054600913079FCF72A
:10E4B000AFFF2A46009BFCF7E3FEFCF7B7FF0546DB
:10E4C000282069460875292008762A2008772B20FD
:10E4D00008A908702C2008712D20087255480123C6
:10E4E00005AA18212430009400F052FD5148012360
:10E4F000B21D1821243000F039FD4E48012306AA30
:10E5000018212430009400F043FD4A480123F21DF5
:10E510001821243000F02AFD012300E07DE0454869
:10E5200007AA18212430009400F032FD41483246F9
:10E53000012308321821243000F018FD3D48012342
:10E5400008AA18212430009400F022FD39483246F0
:10E55000012309321821243000F008FD3548012339
:10E5600009AA18212430009400F012FD31483246E7
:10E5700001230A321821243000F0F8FC2D48012331
:10E580000AAA18212430009400F002FD29483246DE
:10E5900001230B321821243000F0E8FC24480168E4
:10E5A0000A0E69460A7101680A0C69464A710168D7
:10E5B0000A0A69468A710068C8710C72119848721B
:10E5C0008C721098C8720C734D73B0798873F0799F
:10E5D000C873307A0874707A4874B07A8874F07AA4
:10E5E000C87414481C4A018A91420FD881780029C6
:10E5F0000CD01A4A254601AEC461735D018A6D1CB8
:10E600005354491C0182102DF7D3C561018AE122C0
:10E610009201914201D3048207720E486038046669
:10E620004466846615B0F0BD06800000040F00004B
:10E6300014210020802000200A210020060B000069
:10E6400060060200000500500700000009FF0000FE
:10E650002E000000845C00203F380000A421002030
:10E66000F0B5002406460D46601C010795B0090F61
:10E6700008A810310C940174297B4174817CF9271E
:10E680003940891C81741C2105A8FCF7DAFD684615
:10E69000017D14200143684601750CA806940A9078
:10E6A0000894099401220B9408A8827617496846B9
:10E6B00001870D94697B08A80175A97B4175817D4F
:10E6C000F7203940891C0140EF200140114308A880
:10E6D000817514216846FCF7B4FD0EA800900DA8C2
:10E6E00001900FAA0021304600F012F8014668465A
:10E6F00001811421448181810FA804903346F08860
:10E7000008336A4605A9A2DF15B0F0BD372A00001C
:10E71000F7B542790025002A00D004252222135C97
:10E720000222002B00D01543CBB2FF2907D90122CA
:10E730001543029A090A53709170032602E0029968
:10E7400002264B7004464034A189002901D01021D3
:10E750000D43002716E0B11C142909D9A189C91B52
:10E760004A007900091824302431FCF743FD0CE0FD
:10E77000029B7A0012189B19928C1A70120A5A7016
:10E78000CEB27F1CA189B942E5DCA089C01BA08163
:10E79000029805703046FEBDF8B51C4C2078002864
:10E7A00033D02069002807D00026E068002805D073
:10E7B0000025002E04D011E00126F6E70125F8E738
:10E7C000684652DF052804D0002804D0FDF76AFA15
:10E7D00004E0012602E0216900988847002D10D14D
:10E7E000608869460880A06861DF052804D0002899
:10E7F00004D0FDF757FA04E0012502E0E168A068C3
:10E800008847002EDCD0002DD3D0F8BD8421002015
:10E810007FB50C460D46203506466978287801916B
:10E82000009022462632D11E3046E36901F059FCA1
:10E83000002819D1E87800281DD1207B022801D0BA
:10E84000032818D12269E169914214D16269E26119
:10E85000E37B2B70217E8906C90F6970032804D0E1
:10E860003146204601F0E0FB7FBD00913146204655
:10E8700001F0BAFC7FBD20460C3007C801AB07C3CE
:10E88000E878002100280ED00920C0013218506C11
:10E890005064820701D5012002E0400705D502201F
:10E8A0006A46107001E0684601702971207E4007B9
:10E8B000E0D422686846616890477FBD418805487A
:10E8C0000288914204D34088814201D801207047D8
:10E8D00000207047EC2000201048018CC9B20129AB
:10E8E00017D1818C090714D1018D09060A0F03D1B4
:10E8F000828D1206120F0ED0090F012903D1828DCD
:10E900001206120F07D0032903D1808D0006000FD5
:10E9100001D000207047012070470000C00F00F0B8
:10E9200070B50E481422017851430C18256900F087
:10E93000FBFD0146E08822896D1E80184019FCF716
:10E940002FFC07494A69824206D3824202D10869F4
:10E95000002801D0002070BD012070BD9060002013
:10E9600038210020800701D0002070470120704727
:10E9700030B51588EC1C9C4201D90C2030BD022416
:10E980004C5513881C255B1C9BB21380CD541388F7
:10E990005B1C9BB21380012807D0022807D00328F4
:10E9A00007D0042807D0072030BD002004E0012054
:10E9B00002E0CC5401E00320C8541088401C1080B1
:10E9C000002030BDF8B52C49C8680A690C780F7969
:10E9D00089688646944600913EE00099E200551809
:10E9E0002A7836E0182353436968521CC918AB785B
:10E9F000D2B2934200D100220B78022B02D0032B1B
:10EA000027D123E04E680346014603E0B14204D01B
:10EA10000B46C96900291CD0F8E7002919D08B42A0
:10EA200008D1C069002805D1144F0126BE60002618
:10EA3000B44601270E68C969D961002909D00B685D
:10EA40009B190B6005E00174C06900E000210028FB
:10EA5000F9D169789142C5D12146641EE4B20029FA
:10EA6000BBD1054962460A61C8600F71704501D08B
:10EA70000120F8BD0020F8BD5C21002000100140FD
:10EA8000F8B5044631480026C168009107784EE089
:10EA90002E48F90080680D1843E0002C02D0204673
:10EAA000E4691FE02878182141436A68401CC0B21D
:10EAB00051182870AA78904200D12E700A784868C0
:10EAC000012A30D1027C002A2DD18A684260CA68AE
:10EAD00082600A69C260496981611C49097900291B
:10EAE00000D04660194943680A699C46991A090290
:10EAF000174B090A994202D28268891807E06146D9
:10EB0000511A09028268090A8A4202D9511A01601F
:10EB100000E006604660012186600174C66101F074
:10EB2000D7F9002CB9D1287869788842BAD138460B
:10EB30007F1EFFB20028ABD10448C1680098814213
:10EB400001D00120F8BD0020F8BD00005C210020AC
:10EB5000FFFF7F0088B000240D2000F061FA002341
:10EB60004F4A07211846FDF7EBF8002801D0FDF7C2
:10EB700099F84C4A01214C48FDF7CCF8002801D007
:10EB8000FDF790F8FDF778FD2046FEF701FBFFF753
:10EB900037FAFDF70FF800F071FF1C216846FCF70B
:10EBA00050FB0520C00301900F20000400250290B7
:10EBB00000950321684601733C4881896846C181FC
:10EBC00005743B4805903B4806906846FDF77CFB82
:10EBD000002801D0FDF766F8334801210022C9035F
:10EBE0000068FDF7F5F8002801D0FDF75BF8032079
:10EBF000FDF774FA002801D0FDF754F82E4C2F4E83
:10EC000048DF002801D0FDF74DF8607A002813D0C6
:10EC1000207A002840D0608AE1218901091A081869
:10EC200027A109680091020A69464A708870042287
:10EC30001E48FDF7C7FC6572E078002808D021A0C7
:10EC400000680090042269461848FDF7BBFCE57097
:10EC50006079002808D01CA0006800900422694652
:10EC60001248FDF7AFFC657130780028C8D017A0B6
:10EC700003C800901748019100886946020A4A704B
:10EC8000887015480288100AC8700A710522074862
:10EC9000FDF798FC3570B3E7208A618A401ABFE718
:10ECA000E459002081E2010060060200905C00202F
:10ECB0007DF10100B5CE010080200020062100205A
:10ECC0000B0000EE0C010AEEA1010AEED1000000DB
:10ECD000000000000C2100200A21002010B504488B
:10ECE0000822416891434160007800F02DFF10BD7B
:10ECF0003821002070B5144682880E4605462088CB
:10ED0000111D4118921C994201D8FE2A01D90C20EC
:10ED100070BD521C32542088FF21401C80B22080DC
:10ED200031542088401C80B220808119288801F04D
:10ED3000A1FB2188401880B22080AA88002A09D02F
:10ED4000A968002908D08019FCF754FA2088A988FE
:10ED500040182080002070BD072070BDF8B50F4618
:10ED6000017814460546012902D16878002806D0AA
:10ED70002088821C9A422DD8012902D006E0072063
:10ED8000F8BD69784118891C994223D8181A801E49
:10ED900086B2684606802188B81C081869467DDF5F
:10EDA0000028EDD12878022805D169460988B142AA
:10EDB00001D809210AE00821012805D16878B0426C
:10EDC00002D86A46108001E06846068068460088DE
:10EDD000FE2801D90C20F8BD2288401CB854208898
:10EDE000401C80B22080395420886946401C208015
:10EDF0000988401820800020F8BD002070470020BE
:10EE0000704700207047000031B5054C04E0401EFB
:10EE100000902046FCF75EF900980028F7D138BD35
:10EE2000E70300008207D30EFF229A408907090EEC
:10EE300010B5994000280BDA03071B0F083B9C080C
:10EE40000C4BA400E318DC6994430C43DC6107E03D
:10EE50008408094BA400E418236893430B43236000
:10EE6000C106C90E012088400449086004490860B1
:10EE700010BD000000ED00E000E400E080E200E0F2
:10EE800000E100E00179282251430D4A00688A1808
:10EE900000210323C9431B02C3189960C11DFF3120
:10EEA000FA310B6800230B600521090241180B6041
:10EEB0001F230121DB01C018C16720329170704708
:10EEC00004630020017928225143054A006889180B
:10EED00005221302C018026002202031887070479A
:10EEE00004630020F8B507460C4600792821484302
:10EEF0001A4945182E4600202036B070002C03D148
:10EF00003979174C09010C190CC5286070713071E2
:10EF100021463846083D01F03BF8216811488A0037
:10EF20001149521810606268920051180860052358
:10EF300038681B0206CCC0188160C260216841623B
:10EF40002868083C002805D03868217B000B40B2B7
:10EF5000FFF768FF0120B0700020F8BD04630020B7
:10EF6000340702000C060000000700503EB5074DB4
:10EF70002C69AD69009402956C466170A370019292
:10EF80000022694600F038F83EBD00003407020058
:10EF90003EB50025069C009502956D466970AB70E4
:10EFA0000192002C01D0202200E00022294600F02E
:10EFB00023F83EBD70B505460E460079282148432A
:10EFC0000B4944182068002806D02868C203D10ED7
:10EFD00001208840074908602846FFF753FF314663
:10EFE000284600F0D5FF00202034A07070BD00003E
:10EFF0000463002080E100E070B50D46017928230C
:10F000005943064BCC18910701D0062070BD13461A
:10F0100001682A46204601F02DF970BD04630020E6
:10F02000024A0321800080180160704700070050E9
:10F03000820006481018026803231B049A430260EA
:10F04000026809040A43026070470000000700508C
:10F050000121814001488160704700000005005097
:10F06000034940180068012800D0002070470000C4
:10F07000006000404058002800D0012070474058F0
:10F08000002800D001207047032212028018406837
:10F09000084000D00120704710B5002809D003288F
:10F0A00006D10220FDF738FC002801D0FCF7FAFD5C
:10F0B00010BD00F035FD10BDF8B501882B4C0129BD
:10F0C00020D010291CD0112919D1694611200870AF
:10F0D0002748FCF7C1F882B2254968467CDF002842
:10F0E00001D0FCF7DFFDFCF765FD0120FCF7F6FF22
:10F0F000002801D0FCF7D6FD0020C043A082F8BD57
:10F100008088FBE71948A379267A428A19491F4665
:10F11000B7438918008A0025002F03D0824201D806
:10F1200082420FD1334215D0904205D9824203D09A
:10F1300010496082091805E0E1239B019A4209D831
:10F14000824207D010220C48FDF73CFA608A10304A
:10F15000608202E0A5710120E071618AE1208001F6
:10F160008142CCD965822572F8BD00008020002044
:10F1700018210020A4210020905C002010B5007808
:10F18000002807D104483B21808A76DF002801D07F
:10F19000FCF788FD10BD000080200020F0B58BB08A
:10F1A0000C460546022168460173012686742289B1
:10F1B00082826289C28220460C300027069008971E
:10F1C00068460184478407A80990A98A288808AA64
:10F1D000A5DF002804D0E96A002919D0884717E084
:10F1E0006846808BC007C00F12D068460782288807
:10F1F00003A9A8DF002812D1217B20460D300B0087
:10F20000FCF7B1FB09420F1C22242729402B4200A6
:10F21000FF20FE3069460882288803A9A8DF0BB0CA
:10F22000F0BD6A4617700BE006221BE069460E72BD
:10F230000190AA6A284690470020F0E76A461670B7
:10F240006289022AF2D2EFE7022000E00320694639
:10F2500014E00420FBE70520F9E76189032905D2C2
:10F26000032208212846FDF763F9D8E741780278A0
:10F27000080210436946888002D006200870D8E74B
:10F280000720FBE70920E2E70322EBE7F8B58C1D36
:10F29000C988828900270125304E914212D16189A7
:10F2A00002290FD10268002A0CD0617B237B09025E
:10F2B00019432940694602D00F70357101E00D7085
:10F2C0003771904720880E2821D1207BA0281FD09D
:10F2D0000ADC0D2834D0452819D1204914310F609B
:10F2E0008F80A775002024E0A2281CD0A4280ED16E
:10F2F000E0893C2140BA3081207C48430A38F080C4
:10F30000607CF0607570164835700570F570F8BD5A
:10F31000E08940BA3061208A316940BA090401436A
:10F32000316110480AE0B570F8BD527B0A54401CA8
:10F33000C0B22218137B002BF7D10B480570F8BD23
:10F340000A480B4900880988884201D10948F5E735
:10F3500009480570094807700948EFE704210020B3
:10F360008420002085200020AC2000209020002058
:10F37000922000208320002086200020872000206B
:10F38000892000200021425C002A01D00120704722
:10F39000491C0629F7D300207047000070B50546C8
:10F3A0001C200D4968434418204611300621FBF704
:10F3B00048FF20461021FBF744FFFF212174002065
:10F3C000A176C0432083284601F05AF8024A002063
:10F3D000A9001C3A505070BDF85E00200749097919
:10F3E000490701D408207047002804D0044949780F
:10F3F0000160002070470E20704700003821002077
:10F400009060002070B5134B1B795B0701D4082076
:10F4100070BD002817D0002A15D00368022B10D227
:10F420000C240D4D5C432E59002E0AD046686019FD
:10F4300004894589406861436543711828188842EA
:10F4400003D8072070BD0E2070BD136000205160EE
:10F4500070BD000038210020EC620020FEB504469B
:10F4600026480E460079400701D40820FEBD002C36
:10F4700025D02068022836D20C21214D4843295836
:10F48000002930D040194189028940685143091848
:10F490006068814227D9FFF765FA002811D06068BB
:10F4A000019021680C2251434F1979680091401A4C
:10F4B00039890D46FBF774FE002914D103E00E20B4
:10F4C000FEBD1020FEBD29463046FBF769FE00292F
:10F4D00009D1002E07D07889009945430198491930
:10F4E0008019884201D90720FEBD00200246009005
:10F4F000334621460320FDF701FCFEBD38210020E4
:10F50000EC62002010B507484469601C06D000F08A
:10F510000BF801462046FBF743FE10BD0120000713
:10F52000406910BD0010001001200007006980B282
:10F530007047000070B500241248254604704470DE
:10F540002846FDF7CBFB6D1C1E2DF9D30E4D6C80AC
:10F55000FFF7D8FFC61EFFF7E7FF46430B4AAE6032
:10F5600000206C610C214143545089180C81401CCF
:10F570004C810228F6D32C70AC610420EC616860E9
:10F58000002070BD9060002038210020EC62002037
:10F59000FFB5284881B000791F4616460C46400743
:10F5A00002D4082005B0F0BD002C1DD00198002821
:10F5B0001AD02068022815D20C211F4D4843295823
:10F5C00000290FD041194A890889496842435118D6
:10F5D0006268914206D9002E04D0B04202D3F119DC
:10F5E000814203D90720DDE70E20DBE70198FFF712
:10F5F000B9F900281BD03846FFF7B4F9002816D017
:10F600006068FFF7AFF9002811D060683246C11971
:10F610000198FBF7EFFD009620680C2148432D5818
:10F62000002202212046019BA8470020BAE71020B3
:10F63000B8E7000038210020EC620020F8B52C4D1E
:10F64000044628790E46400701D40820F8BD002C56
:10F6500020D0002E1ED0206800281BD0FFF764FFAA
:10F660000146A088814213D3102811D3E0880028D6
:10F670000ED0FFF747FF471EFFF756FF4743E288CC
:10F68000A188A8684A431218974201D3890703D07A
:10F690000720F8BD0E20F8BD6988022926D0316008
:10F6A0000C22144B51437060CA18506020685850A7
:10F6B000A0881081E0885081FFF736FF0646FFF7EB
:10F6C00033FFA188E288401E514340183146FBF7C2
:10F6D0007DFD0446FFF728FF0146A868614308182E
:10F6E000A8606888401C68800020F8BD0420F8BD30
:10F6F00038210020EC620020F8B5044621481E465F
:10F70000007915460F46400701D40820F8BD002FA8
:10F710001CD0002C1AD02168022915D20C2041439C
:10F7200019484258002A0FD00818428901894068B8
:10F730004A4310186268904206D9002D04D0A942AD
:10F7400002D3A819884203D90720F8BD0E20F8BDBE
:10F750003846FFF707F9002811D03046FFF702F9C5
:10F7600000280CD06068FFF7FDF8002807D02B4672
:10F770003A46214601200096FDF7C0FAF8BD102058
:10F78000F8BD000038210020EC62002010B51149BE
:10F7900002460878002811D004280FD0022A16D07B
:10F7A000032A0BD10A79120711D48A69521C8A6183
:10F7B000032A08D0022802D000F0C6F910BD48780C
:10F7C00000F01CFB10BD0D20FCF794FA10BDFEF7F5
:10F7D000C1FB10BD38210020F8B5044621481E4663
:10F7E000007915460F46400701D40820F8BD002FC8
:10F7F0001CD0002C1AD02168022915D20C204143BC
:10F8000019484258002A0FD00818428901894068D7
:10F810004A4310186268904206D9002D04D0A942CC
:10F8200002D3A819884203D90720F8BD0E20F8BDDD
:10F830003846FFF797F8002811D03046FFF792F8C6
:10F8400000280CD06068FFF78DF8002807D02B4601
:10F850003A46214604200096FDF750FAF8BD1020E4
:10F86000F8BD000038210020EC62002010B51048DF
:10F870001049808A884205D0132176DF03E0FCF727
:10F8800011FA02E074DF0028F9D10020FDF744F8F6
:10F89000002801D0FCF706FAFCF788FD002801D00B
:10F8A000FCF700FAFF20F530FFF7AEFA10BD0000BC
:10F8B00080200020FFFF000070B501240B49600488
:10F8C00008600B4940108860094940398860094D3B
:10F8D0006C602F20FBF71EFCAC60074D00242F202E
:10F8E0002C61FBF717FCEC7070BD000080E100E0BC
:10F8F00040130140001001405C21002030B50A484F
:10F90000FF21C57D0022094C0931094B002D6250B1
:10F9100007D09969437EC268D154417E491C417623
:10F9200030BD986930BD00007460002000200040A8
:10F93000002500401FB501236A461370107203486A
:10F94000019106C8684690471FBD00007460002002
:10F9500008B502490020009108BD00008020002069
:10F9600010B50121202805DA1A4A8140114201D13F
:10F97000194810BD8107C90E002808DA0207120FC6
:10F98000083A9208154B9200D218D26904E0820816
:10F99000134B9200D2181268CA401106890F04292D
:10F9A00011D200290FD002290DD00E494C68C30690
:10F9B000DB0E01229A40002C08D0400980000B5831
:10F9C00013430B5004E00448401C10BD064802607D
:10F9D000002010BDFC06FFBC0120000000ED00E08F
:10F9E00000E400E09821002000E100E0FFB50746B8
:10F9F000806A81B0144600283DD00025384620306A
:10FA0000009033E00C20B96A68430E18B088801C5F
:10FA1000FE2802D90C2005B0F0BD22880299401CB6
:10FA2000885420881622401C80B2208002990A54F3
:10FA30002088401C80B2208002994118308800F054
:10FA400019FD2188401880B22080B288002A0AD08F
:10FA5000B16800290FD0029BC018FBF7CBFB2088B0
:10FA6000B188401820806D1C0098EDB2007BA84240
:10FA7000C8D80020CFE70720CDE7000030B589B017
:10FA8000032168460170142101A8FBF7DAFB00246A
:10FA900001256846019405720390601C0107090F57
:10FAA000684610310174601C0107090F6846103167
:10FAB0004174601C0107090F6846103181740120F0
:10FAC000014668461031C174002001466846017540
:10FAD00001A90F48FCF790FD002801D0FCF7E2F8DF
:10FAE0000C4807900694089468460583084806A9C0
:10FAF0005030FCF793FC002801D0FCF7D3F80648FF
:10FB0000FDF7E8FB0548807AFDF776FB09B030BDCC
:10FB1000905C002011D201006DF8010080200020CF
:10FB200010B50020FCF7F8FE002801D0FCF7BAF869
:10FB3000FCF798FE002801D0FCF7B4F83CDF002861
:10FB400001D0FCF7AFF810BD10B50F4900280870C0
:10FB500009D0012811D0022812D0032802D1486907
:10FB6000FEF738FA10BD00208861C8610748407868
:10FB70000028F7D0FDF796F810BD00F0F7F810BD9B
:10FB800000F056F810BD00003821002090600020E1
:10FB9000002803D00249C860002070470E2070473B
:10FBA000842100201CB5034901910091694660DF62
:10FBB0001CBD00008020002070B50E46054614468E
:10FBC00014211046FBF73DFB01200021208021611C
:10FBD000217326726572002D00D0A072002070BDC6
:10FBE00010B5FCF751F810BD70B5002901D08C0795
:10FBF00001D0072070BD074C0125A1606280064935
:10FC0000636010DF0028F5D125701620FFF7A8FEED
:10FC100070BD000084210020E1FB0100002803D01A
:10FC200002490861002070470E207047842100209F
:10FC3000F8B5164C14226068400840006060144813
:10FC4000017851430E183769FFF76EFC01463846BC
:10FC5000FBF7A6FA05466061FFF766FC0146F088EF
:10FC60007F1EC019FBF79CFA02228542606801D111
:10FC7000104300E090436060E1681040084303D007
:10FC8000002000F0BBF8F8BD0220FAE73821002080
:10FC90009060002010B502484069FEF79BF910BD46
:10FCA0003821002010B5FFF72DFC441EFFF73CFC67
:10FCB0004443FFF739FC04494A69521E5043CA685D
:10FCC0002146FEF78CF910BD38210020F8B5104808
:10FCD0001422017851430C182569FFF725FC0146D1
:10FCE000E088228980184019FBF75AFA0F46FFF77F
:10FCF00009FC461EFFF718FC4643E0882289F119EB
:10FD00008018044A40191269FEF769F9F8BD00002D
:10FD1000906000203821002070B5FFF705FC0546F3
:10FD2000FFF7F0FB441EFFF7FFFB60432946FBF79C
:10FD300037FAFEF74FF970BD70B5FFF7F5FB86088F
:10FD4000FFF7F2FB0749496948430446FFF7DAFB2E
:10FD5000451EFFF7E9FB684332462146FEF73FF9AF
:10FD600070BD0000382100200020704770B5144895
:10FD70001422017851430C18241DFFF7D5FB61882C
:10FD8000104E884211D2FFF7CFFB61880D1AFFF7A2
:10FD9000CBFB8208A188E068401821694019491905
:10FDA000FEF71DF9FFF7C0FB07E0A288E0688018A6
:10FDB0008A082169FEF713F96088F06170BD0000C0
:10FDC000906000203821002010B505480079000718
:10FDD00003D4012000F012F810BD00F003F810BDAC
:10FDE0003821002010B50448082241689143416041
:10FDF000407800F003F810BD382100200249487017
:10FE00000249800008580047382100200C070200F2
:10FE100010B50446FFF7BAFC2046FCF73FF910BDC9
:10FE200010B505480079000702D4FCF729FF10BD82
:10FE3000FFF7D8FF10BD000038210020FEB51F4C91
:10FE400000252769E06802906846FEF753F80190A4
:10FE5000FEF7B8FD06460198002822D0002300983E
:10FE6000E16817E00E680A46864202D9301A086037
:10FE700012E0801BF31800261660D668D169B446DC
:10FE8000002E07D0FE183602360A56606646966087
:10FE9000D56115460029E5D12846E160FEF7F0FD61
:10FEA00006E02846FEF7ECFD002801D1002E02D026
:10FEB0000298FCF767FF00202071FEBD5C21002046
:10FEC00001200249000508607047000000E200E0E0
:10FED00010B50E4BD968002906D002680C68A24202
:10FEE00004D8A21A0A60C161D86010BD0B4604E0B4
:10FEF0000B46C969121B002904D00C689442F7D341
:10FF0000A41A0C600260C161D86110BD5C210020A0
:10FF1000F8B51D4DEC68002C34D01C480027406813
:10FF20002969401A0602360A2068B04218D8361AE3
:10FF3000C7192246107CE46900280FD000201074F5
:10FF40006B69002B07D0916950699847002805D04C
:10FF5000FBF7A8FE02E0516990698847002CE3D1C5
:10FF60006978A878814206D1401CC0B2A8700228E6
:10FF700001D10020A87004490006800D18310F50EF
:10FF8000FFF79EFFF8BD00005C2100200015014036
:10FF9000F8B50C460968224D8900204849190860C7
:10FFA00061688900491908602068FFF751F86068A6
:10FFB000FFF74EF819482168401C8900491908606C
:10FFC00061688900491908600420FBF793F800254F
:10FFD000144F012620793969C140C807C00F02D0EB
:10FFE000002D19D00FE0207831468140F9600420BF
:10FFF000FBF780F82068FFF72BF80420FBF77AF86E
:020000040002F8
:100000006D1C092DE6DB20798640FE600420FBF79D
:1000100071F86068FFF71CF8F8BD00000C060000DE
:100020000007005000050050FFB50027FF2285B0F3
:100030000C4605321E46A750FF222532A750FF224C
:100040001D32A750FF220932A75005462035CA1D90
:10005000FF32AF71FA32EF70012B0FD00123136022
:100060000122226222600268002A09D010498160C0
:100070008068032109026118486015E00223EEE759
:100080000146263123300391029000200190009612
:100090002046079B039A029900F023F80028F4D128
:1000A000E878002800D00327384609B0F0BD0000EA
:1000B0008602000030B51C78039D944208D20522C8
:1000C0001202095D8018C1611878401C187006E0A2
:1000D0000121002D02D0C161002030BD416101200D
:1000E00030BDFFB50F46097881B00446012904D020
:1000F000039802780A98824201D1012600E0002686
:10010000FF2025300025002907D02550FF201D3075
:100110002550FF200930255056E0FF21253120468B
:10012000FEF7A8FF00282CD1FF211D312046FEF745
:10013000A1FF002814D0FF201D302550FF212531BC
:100140002046FEF797FF00281BD10B980090204611
:10015000039B0A9A0499FFF7ADFF002840D033E0D3
:10016000FF2109312046FEF785FF00282CD0FF2013
:1001700009302550FF2125312046FEF77BFF00285E
:1001800006D0FF20253025500120606138701BE02B
:1001900003990A980F78049ABC46874214D2052323
:1001A0001B02E3189B696746D3550A78521CD2B2EA
:1001B0000A70411E8A4203D102200102085101E067
:1001C000824201D001212162002E0BD0FF2605368C
:1001D00031462046FEF74EFF002803D0A5510020EF
:1001E00005B0F0BD0120FBE7FFB5054687B00C4622
:1001F0000020FF21109F053105906050FF2125311F
:100200006050FF211D316050FF21093160500121F4
:1002100049022E4608512036B071F070012020624C
:10022000A060B31D0097029320460A9A0999FFF730
:1002300041FF2868002807D00D48A860A86803215E
:1002400009026118486010E023350A980090019770
:1002500029462046099B029AFFF743FF0028F4D164
:10026000F078002801D00320059005980BB0F0BD70
:1002700086020000F8B5044600250320ED43000285
:1002800008188560254620352E79002E03D0A168F8
:1002900041601120F8BD5807C017401C287118078D
:1002A00001D50620F8BDA361C1CA0C34C1C40C3A03
:1002B0009078287050680B266060F60150788E198F
:1002C000B06010780026183C01280ED0002801D11B
:1002D000980601D5012000E0002068700090937816
:1002E00052682046FFF780FF05E06E7093785268F1
:1002F0002046FFF799FE21680029D3D12E71F8BD61
:10030000FF2107481D31002242500648828A816839
:10031000895C828A521C82820348C1617047000056
:100320000020004074600020002500401FB500211F
:100330006A4611701072044882680192817506C87D
:10034000684690471FBD000074600020F0B5454D21
:10035000012185B049022846FEF796FE01270026B6
:10036000414C002824D0FF2125312846FEF787FE86
:1003700000281DD0FF2025302E5081203B498000D1
:100380008860A07E002800D16F600221684601705D
:100390003749086808600390E17D68460172E068AB
:1003A0000190E675267606CC6846083C90472BE01F
:1003B00004212846FEF768FE002825D0FF210931D8
:1003C0002846FEF75CFE00281ED0FFF797FAE07D76
:1003D000617E884218D1207E002808D0627EE168C4
:1003E000E0752069E0602676667610460AE0A07E19
:1003F000002800D16F6081201C4980008860E6756C
:10040000607EE168FFF796FAFF211D312846FEF76E
:1004100036FE00280DD0A18AA07D814202D2FFF7CE
:100420006FFF06E0FF211D316E50002801D0FFF75D
:100430007DFFFF2145312846FEF721FE00280ED022
:10044000FF2045302E50A07E002800D02F60E07D98
:10045000002804D0E675607EE168FFF76BFA05B00E
:10046000F0BD000000200040746000200023004028
:10047000802400400870000A487002207047000085
:1004800001218140024842688A434260704700006F
:100490002021002038B51549154A488890420FD0D0
:1004A0004A78144C521CD2B24A70237B934208D330
:1004B000091D75DF002803D0A169002900D08847F5
:1004C00038BD00254D70217C002907D03B2176DF07
:1004D000002803D0A169002900D08847616900295C
:1004E000EED068460570884738BD0000E82000203F
:1004F000FFFF0000C05E0020EFF30580C005C00DC7
:100500001AD0103840B2002808DA0107090F08395C
:1005100089080C4A89008918C96904E081080A4AD7
:100520008900891809688007C00EC1400806800F3D
:10053000012803D0032803D0022070470020704711
:100540000120704700ED00E000E400E0427883788D
:10055000521CD2B2934200D100220378934201D1BF
:10056000002070470A7041684078182250430818EC
:100570007047FFB583B016460C9D0D9C1F460222A6
:1005800000950194039800F00CF8002807D13B4631
:100590001022314600950194039800F002F807B04C
:1005A000F0BDFFB583B0074600200C9C8646268828
:1005B00005463AE07868A9004218118868468180AB
:1005C0005188C1800022694601A865DF002839D121
:1005D000684601780598814226D17046002801D0EE
:1005E000002200E002222088891842180D998A42D0
:1005F00027D8714600290AD1401C80B22080069A73
:10060000049911542088401C2080012086462188AE
:1006100006980A18694601A865DF002812D16946C4
:1006200020880978401820806D1C3888A842C1DCD9
:10063000704600280AD02088801B401E80B2FF2808
:1006400002D90C2007B0F0BD069988550020F9E7C3
:100650000179002902D1007B002800D001207047D9
:10066000105D002000100207070000001E000000BF
:100670000000680601000000070000001E000000E6
:100680000000680601000000305D0020505D002081
:100690007C5D00201100000012000000130000002B
:1006A000140000001100030079C8010012000300CB
:1006B00079C801001300030079C801001400030089
:1006C00079C80100A05E002023D1BCEA5F78231521
:1006D000DEEF121200000000FFFFFFFF03EE01003B
:1006E00045E1010061E0010001E20100FFED0100D0
:1006F00015E101005DE00100F9E10100FBED010001
:1007000065E0010059E00100F1E1010019FD01007F
:1007100039FD010095FC0100CDFC0100A5FC0100A4
:10072000C9FD0100CDCF010079CF010021FE0100FC
:1007300009E2010000000000010000000000980133
:1007400003000000010000000000000000000000A5
:1007500070070200802000202401000080B9010001
:1007600094080200A42100201C4A000090B9010056
:100770000000000000000001000000000000000078
:1007800000000000FFFF0D18010000000000000045
:1007900000000000003000400000000000000000E9
:1007A0000000000000000000000000000000000049
:1007B0000000000000000000000000000000000039
:1007C000FFFF00000000000000000000000000002B
:1007D0000000000000000000000000000000000019
:1007E0000000000000000000000000000000000009
:1007F0000000000000000000000022014006000090
:1008000000000000E0B8C4595069675F3300000081
:1008100000000000000000000000000000000000D8
:1008200000000000000000000000000000000000C8
:1008300000000000000000000000000000000000B8
:1008400000000000000000000000000000000000A8
:100850000000000000000000000000000000000098
:10086000000000000000000000000000D1D20100E4
:100870000000000000000000000000000000000078
:100880000000000000000000000000000000000068
:040890000024F4004C
:040000050001B0C185
:00000001FF
